:1000000040B30020F5660000DD67020025670000B0
:10001000256700002567000025670000000000003C
:10002000000000000000000000000000F564000077
:100030002567000000000000AD6400003756020094
:10004000B5660000F9C70100B5660000B56600009E
:10005000B5660000B5660000B5660000B566000034
:10006000B5660000B5660000B5660000B566000024
:10007000B5660000B5660000B5660000B566000014
:10008000B5660000B5660000B5660000B566000004
:10009000B5660000B5660000B5660000B5660000F4
:1000A000B5660000B5660000B5660000B5660000E4
:1000B000B5660000B5660000B5660000B5660000D4
:1000C000B5660000B5660000B5660000B5660000C4
:1000D000B5660000B5660000B5660000B5660000B4
:1000E000B5660000B5660000B5660000B5660000A4
:1000F000B5660000B5660000B5660000B566000094
:100100007BB972B90029BEBF00204FF0004106E064
:1001100008BF00281CBF6FF000414FF0FF3000F017
:10012000CBB9ADF1080C6DE904CE002909DB002B39
:100130001ADB00F061F8DDF804E0DDE9022304B029
:100140007047404261EB4101002B1BDB00F054F88B
:10015000DDF804E0DDE9022304B0404261EB410137
:10016000524263EB43037047524263EB430300F098
:1001700043F8DDF804E0DDE9022304B0404261EB1E
:1001800041017047524263EB430300F035F8DDF85C
:1001900004E0DDE9022304B0524263EB43037047FD
:1001A00053B94AB9002908BF00281CBF4FF0FF31DE
:1001B0004FF0FF3000F080B9ADF1080C6DE904CECE
:1001C00000F01AF8DDF804E0DDE9022304B070471E
:1001D000430803F05533C01A830803F0333300F0AB
:1001E0003330184400EB101000F00F3000EB00200B
:1001F00000EB0040000E70472DE9F047089E0D46C9
:1002000004468E46002B40F082808A42174646D92B
:10021000B2FA82F24AB1C2F1200105FA02F320FAE1
:1002200001F1974041EA030E94404FEA1748230C2E
:10023000BEFBF8FCB9B208FB1CEE43EA0E430CFB14
:1002400001F098420AD9FB180CF1FF3580F01681B5
:10025000984240F21381ACF1020C3B441B1AA4B249
:10026000B3FBF8F008FB103344EA034400FB01F150
:10027000A14209D93C1900F1FF3380F00181A1426C
:1002800040F2FE8002383C44641A40EA0C400021EF
:100290001EB1D4400023C6E90043BDE8F08702B98F
:1002A000FFDEB2FA82F2002A4FD1CB1B4FEA174E83
:1002B0001FFA87F80121B3FBFEFC250C0EFB1C3353
:1002C00045EA034508FB0CF3AB4207D97D190CF155
:1002D000FF3002D2AB4200F2E7808446ED1AA3B2AF
:1002E000B5FBFEF00EFB105543EA054408FB00F891
:1002F000A04507D93C1900F1FF3302D2A04500F216
:10030000D7801846A4EB080440EA0C40C0E78B42B3
:1003100008D9002E00F0AF800021C6E9000508468C
:10032000BDE8F087B3FA83F100294BD1AB4202D389
:10033000824200F2B780841A65EB030301209E46D7
:10034000002EAAD0C6E9004EA7E7C2F1200C01FAA0
:1003500002F3974020FA0CF04FEA174E21FA0CFCFA
:100360001843BCFBFEF1050C0EFB11CC1FFA87F8FD
:1003700045EA0C4501FB08F3AB4204FA02F409D943
:100380007D1901F1FF3C80F08B80AB4240F2888008
:1003900002393D44EB1A85B2B3FBFEF00EFB10337D
:1003A00045EA034500FB08F3AB4207D97D1900F18C
:1003B000FF3C71D2AB426FD902383D44EB1A40EAA0
:1003C000014178E7C1F1200C8B4022FA0CF71F4362
:1003D00020FA0CF405FA01F34FEA174E25FA0CF552
:1003E0001C43230CB5FBFEF91FFA87F80EFB1955C9
:1003F00043EA054509FB08FAAA4502FA01F200FAA8
:1004000001F308D97D1909F1FF3047D2AA4545D932
:10041000A9F102093D44A5EB0A05A4B2B5FBFEF023
:100420000EFB105544EA054400FB08F8A04507D927
:100430003C1900F1FF352DD2A0452BD902383C44A0
:1004400040EA0940A4EB0804A0FB02894C45C646DB
:100450004D4619D316D05EB1B3EB0E0264EB050422
:1004600004FA0CFCCA404CEA0202CC40C6E9002463
:100470000021BDE8F087314630460EE7AC46EDE698
:10048000184601E74345E6D2B8EB020E69EB0705D3
:100490000138E0E72846D3E760468FE78146BAE7B0
:1004A000614677E708464BE7ACF1020C3D4415E79F
:1004B00002383C4426E700BF704700BF0000000040
:1004C00073B53F4DD5F82431996811F0010121D160
:1004D00001AA40F6034007F02FF9044600286CD12A
:1004E000019B9B681B7893B9364A136005F198030A
:1004F000184626F09CFDBFF35B8F00F0050053E823
:10050000002F43E800010029F9D1BFF35B8F019868
:100510001FF03CFC01AA002141F2030007F00CF996
:100520000446002849D1019B2748996808220131D7
:1005300026F037FA01981FF029FC214601AA41F262
:10054000010007F0F9F80446002836D101988368C5
:100550005A7885F83820D9789A7842EA01226A8751
:100560001A7985F83920197ADA7942EA0122AA87BC
:100570005A799B7942EA0323EB871FF007FC214657
:1005800001AA41F2020007F0D7F80446A8B9019B7E
:100590000E4899684022013126F003FA95F86A3036
:1005A000019843F0060385F86A301FF0EFFB95F8D9
:1005B00044305A060CD46FF01204204602B070BDCD
:1005C00068000020F0210020A8000020B0000020DA
:1005D000214601AA42F2030007F0AEF804460028C3
:1005E000EBD1019BC24899680822013126F0D9F964
:1005F00001981FF0CBFB214601AA42F2020007F04E
:100600009BF804460028D8D1019B9B68B3F80120D1
:10061000A5F8CC2091B221B1DA78B64811462CF079
:1006200041FF01981FF0B2FB95F8446016F02006D8
:1006300000F0398195F864301B0711D501AA00211B
:1006400042F21C0007F078F804460028B5D1019862
:10065000836853F8012F5B68C5E92A231FF096FBD6
:1006600095F8A0309E0623D50DF10201684626F0CC
:10067000D7FE04460028A0D1042142F2240007F04E
:1006800001F80646002800F01581042108302BF0FF
:1006900004FDBDF800300380BDF8023043802246DF
:1006A000314642F2240007F047F80446002884D17E
:1006B00095F8A0305C062CD5022142F22E0006F0FF
:1006C000E1FF0446002800F0F580022108302BF0FD
:1006D000E4FC6FF07B030370032343702146002288
:1006E00042F22E0007F028F8044600287FF465AF98
:1006F000014601AA42F22A0007F01EF8044600282B
:100700007FF45BAF019883685B7885F8E8301FF071
:100710003DFB082142F2010006F0B4FF0446002828
:1007200000F0C880082108442BF0B7FC95F8A01011
:1007300011F0400F024640F2022308BF032388074E
:100740004CBF43F02C0043F00C008B0695F8A13011
:1007500048BF40F0400013F0090F95F86A3018BF09
:1007600040F4006003F00603CE0748BF40F01000DD
:10077000062B08BF40F4C070002126F06DFD214615
:10078000002242F2010006F0D7FF044600287FF461
:1007900014AF95F8443098061ED4B5F8CC10D9B9EA
:1007A00001AA41F2050006F0C7FF044600287FF4C5
:1007B00004AFB5F8CC3063B9019B9B685A7899783F
:1007C00042EA0122A5F8CC209A884A4811462CF02A
:1007D00069FE01981FF0DAFA082140F6014006F0A0
:1007E00051FF0446002865D0082108442BF055FC31
:1007F00095F8A030D907024671D53BA1D1E9000197
:1008000026F02AFD2146002240F6014006F094FF22
:10081000044600287FF4D1AE014601AA4FF60140FC
:1008200006F08AFF044648BB01981FF0AFFA214644
:1008300001AA4FF6024006F07FFF0446F0B9019B83
:100840002D4899680222013126F0ABF801981FF07B
:100850009DFA95F889305B0710D501AA21464FF61D
:10086000034006F069FF48B9019B244899680122BA
:10087000114426F096F801981FF088FA08F0EEFF70
:10088000044600287FF499AE1D491E482CF08AFECC
:10089000EB79002B3FF491AE04211B4826F021FC9C
:1008A00007F074FD89E6022140F66D4006F0EAFE8D
:1008B000044610B96FF036047FE6022108302BF0B1
:1008C000ECFB0123037046702146324640F66D4032
:1008D00006F032FF044600283FF4ACAE6DE60B484C
:1008E0004FF000518CE700BF90880002008000208C
:1008F0000801002038010020F1000020F000002055
:10090000A17A0000A0010020000100201088000250
:100910002DE9F041D0E90BC7D0F828800CEB070493
:100920003034A0450E46154618D81B4F18A3D3E9FE
:100930000023ACFB0701FFF733FCA4EB080420F015
:100940007F40306012A3D3E90023A4FB0701FFF727
:1009500027FC20F07F402860BDE8F0810E4C0CA3FE
:10096000D3E90023A8FB0401FFF71AFC20F07F4322
:1009700007F130003360A0FB040105A3D3E9002395
:10098000FFF70EFC20F07F402860BDE8F08100BF3B
:100990008D49FD1A0700000000CA9A3B00000000C4
:1009A0002DE9F04FB14C8FB0002800F0C78194F8CA
:1009B000D66016F0010637D194F87C8094F82900AF
:1009C00094F82C2027272D2307FB084800F003006C
:1009D00017FB0237FF2384F82A301BF04FF894F8F6
:1009E000D600410708F17D0804EB070900F12781D3
:1009F000E05D3146C0F3801013F0B6FE06220146DA
:100A0000054609F1020025F0CCFF2946062208F12F
:100A1000020025F0C6FFE35D5A060AD413F00E0F5C
:100A200040F0E480636A8BB10C2630460FB0BDE81D
:100A3000F08F062109F1020012F0DCFA002800F024
:100A40003582E35D13F00E0FECD0CFE016F0B6FA6E
:100A50008246002800F04F8216F0BCFA8346002838
:100A600000F0628217F044FE0546002800F059822B
:100A70004FF6FF73806FAB8505F11C030B930028C5
:100A800000F0358205F16C0205F1680112F0BEFA42
:100A9000B5F8642095F83DE095F8DC0095F826114E
:100AA00095F840C0C5F830A122F4EF6222F00702A9
:100AB00042F4887242F001020EF03F0E6EF07F0E9B
:100AC00020F0030021F00301A5F86420002262F366
:100AD000000C4FF01B1385F83DE085F8DC0085F82D
:100AE00026116348634985F83F204FF0060EC5E99B
:100AF00013226A866A636A65A5F8C820A5F8CC2027
:100B0000A5F8E82085F8EA20C5F80021A5F8042119
:100B1000A5F81821C5F82021A5F8242185F82F2152
:100B2000AA67EB6585F840C02866A5F8C4E0C5F85B
:100B30001C11A5F87C2095F872E195F89AC195F8FA
:100B40007E0095F85211A5F8502162F3C30C62F3B0
:100B5000041E21F0070120F01F00A5F87021A5F860
:100B60009821A5F8A42185F89AC185F872E185F845
:100B7000521185F87E0018F007F9A5F8D60018F094
:100B800009F9D5F8A8313C49A5F8D8001940C5F8AD
:100B9000A81118F005F995F8AC1160F3020185F879
:100BA000AC1118F003F9C4E933AB0B9B636295F801
:100BB000AC1195F820C0ED610301002203F0700331
:100BC00021F078010B4362F3000CC5E96E22C5E900
:100BD0006C22C5E90522C5F8C02185F8AC3185F83D
:100BE00020C01CF027FA002840F06A8194F82830D1
:100BF0000121C3F342030DA88DF8343012F07AFBC3
:100C0000002800F09480E35D03F00F03022B35D041
:100C1000012B00F0598198F801201032D200002BEE
:100C200040F0468199F801301033DB0003F54D7137
:100C30000A4403F59A73013803FB00202AE0C0F34D
:100C4000C000324604F1D7011BF028F9FF2884F8D0
:100C50002A0002D030461AF0DFFF494603481AF056
:100C600053FF024841461AF04FFFD4E620350020DA
:100C700048014801FF4901000000FFF699F80130E2
:100C80001033DB0000FB03F303F5AA730138642281
:100C900002FB003094F82030AD49E461002565F393
:100CA0000003312284F820302260C4E90555A6A350
:100CB000D3E90023C4E90155A0FB0101FFF770FA55
:100CC000B4F8D490E06013F049FD8046B9F1000F0C
:100CD00007D1E55D05F00F05A5F10105B5FA85F52C
:100CE0006D0994F8280065F3000010F0010584F800
:100CF000280000F08980DFF86C92E368954904933E
:100D0000002002250CAF01930591CDE9079703213F
:100D1000CDE9020006942A46009043460C9513F054
:100D20006BFC394616F004FA002800F0AC80636AC8
:100D3000002B3FF479AE16F029FD75E694F8D63015
:100D4000DD077FF571AE204616F01AFA84420CD00A
:100D5000814A8249824840F2337323F0ABFB404022
:100D600080F311884FF0030002DF94F82830D80791
:100D70000DAD0ED502220D9203217A4B0095012272
:100D8000002013F0A5FC294616F0D2F9002840F007
:100D9000D08002220321734B009500200D9213F0A6
:100DA00097FC294616F0C4F9002840F0A6806E484A
:100DB00016F022FA002840F08C806C4816F0ECF90E
:100DC00084420CD0644A6549654840F2557323F06B
:100DD00071FB404080F311884FF0030002DF636A2B
:100DE0000BB116F0D3FC94F8D63000206FF300035B
:100DF00084F8D63017F088F80646002840D0002640
:100E000030460FB0BDE8F08F5948E268594BDFF823
:100E100054E10694A9FB0001912707FB091102F296
:100E200047171F6004924B4A09934FF002094FF68F
:100E3000FF7C05920CAF44A3D3E90023CDE907E77B
:100E40000295CDF83090CDF80CC0FFF7A9F94A46CD
:100E5000CDE9005043462846032113F077FB39467D
:100E600016F066F900287FF462AF94F8D63043F0AC
:100E7000010384F8D63017F047F80028BFD10120CD
:100E80001AF0DAFDD1E53C4905914AF2D8320092D8
:100E9000CDE90797CDE90300CDE90100069443466B
:100EA000012203210C9513F0A7FBD8E71226BCE51D
:100EB000062B3FF4B7AE4FF4DA734FF41B72BAE669
:100EC00016F064FC0326B0E54FF4F2734FF47F7222
:100ED000B1E6214A2949224840F2527323F0EAFA46
:100EE000404080F311884FF0030002DF65E705F111
:100EF0007000A867C6E5072697E51C4816F04CF970
:100F000084423FF491AD40F24C73134A13491448A4
:100F100023F0D0FA404080F311884FF0030002DF45
:100F200082E5584616F05CF8504616F04DF8072654
:100F30007BE50E4816F030F984423FF475AD40F27F
:100F40003E73E2E7AFF300808D49FD1A0700000011
:100F500000CA9A3BFD7401008CEA02007CEB02009F
:100F60000CE80200257101003C35002020350020EE
:100F7000002AE784003600200977010074E90200A6
:100F8000F8B5194E9DF8184096F83C5015F0010739
:100F900020D196F824C0DFF854E0B186E40004F0D4
:100FA00018040CF0670C44EAC01463F34205A2FB7A
:100FB0000E0144EA0C04912303FB021186F83C5015
:100FC00007A3D3E9002386F82440FFF7E9F8B063CC
:100FD0003846F8BD0C273846F8BD00BFAFF3008097
:100FE0008D49FD1A0700000024360020002AE784FE
:100FF0002DE9F04F90F82430044600F1270190F8D5
:101000003C0003F0F903C0F3400060F386138DB099
:1010100084F8243013F0A8FBA68E94F820303C48C6
:10102000E4610025A6FB000165F30003912202FBA9
:101030000611C4E9055584F8203033A3D3E9002311
:10104000FFF7AEF8A36B656006460933A6F13102DF
:1010500093424FF0310132BFE360E560A563A560C4
:10106000216013F07BFB0694B4F834A0294A2A4B84
:101070002A4D804626489127AAFB000107FB0A114A
:101080000DF12C09E7680497CDE90729002705939E
:101090004FF0020A1CA3D3E90023CDF82CA003973C
:1010A000FFF77EF8651B104619464FF47A7200234D
:1010B000FFF776F8AD090435EDB22A4643460290B3
:1010C000032100973846019613F096FA494616F028
:1010D0002FF8054668B994F83C3043F0010384F8D2
:1010E0003C3016F001FD044638B128460DB0BDE88D
:1010F000F08F0C200DB0BDE8F08F50461AF09CFC2C
:1011000020460DB0BDE8F08F8D49FD1A07000000A4
:10111000002AE78425710100B17C010024360020FB
:101120002DE9F04F044690F8E97090F8E800874206
:101130008DB00D4616460ED0C01B00F003000228ED
:101140001BD094F82D2194F82C319A4230D10020F4
:101150000DB0BDE8F08F94F8523113F00108F0D1D2
:1011600094F8051194F804218A4200F09483B81E83
:10117000012384F8E90084F8EA3094F8983194F86F
:1011800099219A4206D094F89A2102F00601042986
:1011900000F0C58394F8EA707B1E052B00F26D8386
:1011A000DFE813F05C00040380026B032E03A90147
:1011B000294811F0D5FE58B394F82C3184F82D311C
:1011C0000379022243F0030342710371C271D4F820
:1011D000B03194F82E2102722BB394F8522191076A
:1011E00021D494F8AB21D2071DD4D4F8BC2193426A
:1011F00004BF1A68C4F8BC21D4F8B421B2B91A6883
:10120000026018600368C4E96D000BB9C4F8C0013E
:10121000B4F8CC0000289AD1B4F8C630012B0ED90E
:10122000A4F8CC3093E7D4F8B42172B1D4F8B83133
:101230001A68026018600368C4F8B801E5E7013372
:10124000A4F8CC300DB0BDE8F08F0360C4E96C00A9
:10125000C4F8B801D9E700BFC4380020DFF840A4C3
:10126000DAF80030002B00F00285B4F83680628E88
:1012700094F806319044B04413F003031FFA88F841
:1012800040F0EC83B4F8EC90A8EB09021FFA82FB63
:1012900012043FF556AF94F8701194F8712194F848
:1012A000040184F805018A4294F8E80084F8E90012
:1012B00009D094F8722102F00702052A04BF84F8CD
:1012C0007111A4F8CC30DAF80030D4F800719C42E7
:1012D00004BF0023CAF80030002F00F09985386859
:1012E000002800F09585B4F80831E28D4168B4F823
:1012F0000AC1C4F80011934200F0DB86B4F80CE197
:10130000A28DFA800F210022FB83A7F820C0A7F846
:1013100022E039713A77394615F068FE15F070FE13
:101320002368002B09DAD4E9011223F000438A4232
:101330002CBFA91869182360CD1AE38DB4F8087181
:1013400013FB0BF39BB2B3FBF7F117FB01F292B265
:1013500093421FFA81FA80F04985D31AC44840F2BB
:10136000E24202FB03F3A3FB0001BFA3D3E9002386
:10137000FEF716FF20F07F400544628E94F93D3061
:10138000A9EB0808D0443244904440F2E249002BD3
:10139000A4F8328009FB07F7C0F24A85B54AB6497E
:1013A000B64840F6631323F085F8404080F3118877
:1013B0004FF0030002DF4FF000083E46B4F80C2166
:1013C000B4F80A11AE4BAF48218642F2107C0CFBF8
:1013D00002723B443844B3FBF7F301F1060C013AC7
:1013E000B2FBF7F2B0FBF7F798B2A4F8C62060455D
:1013F000B4F80821A4F8D200A4F8CA70E28502DD8E
:10140000401A063880B294F80631A4F8CE005B0783
:1014100044BF0023A4F8C830022101201EF034FA92
:10142000002202218146012011F03EFE96494FF430
:10143000E472204611F0CAFD421D5FFA82FA934B16
:10144000009452460121002013F042F930F00203CB
:101450000CD0884A8E49894840F6921323F02AF826
:10146000404080F311884FF0030002DF804BA6FB61
:10147000036730467CA3D3E900233946FEF790FE8C
:10148000844AE368049320F07F4BABFB02230720E0
:1014900000FB0B33B01A67EB0301089406944FF47A
:1014A0007A72002400237C4F7C4E079705960394A4
:1014B000FEF776FE2B46CDE901B0CDF80080204640
:1014C0005246012113F098F830F002030CD0694A1B
:1014D0006F496A4840F6AC1322F0ECFF404080F3BD
:1014E00011884FF0030002DFB9F1000F40F0FC85D6
:1014F0006FF047002CE6E28E638E94F8EC501A44AD
:101500003244EF0796B2AB4600F11383B4F8EE20F5
:10151000B61A37043FF515AE94F8DC2094F86480D1
:1015200094F865A094F8E810B4F8627084F8E910B3
:10153000D60708F007080AF0070A40F1DE85D4F85C
:101540001C21100540F1D985B4F8D890B9F5296F60
:1015500028BF4FF42969B9F5A47F4FF4296338BF38
:101560004FF4A4790B9315F01C0F40F03986B4F8B2
:10157000606015F0E00F0CD094F8652094F85E00E0
:10158000690961F3020284F865200B9A16F036FDB2
:10159000074694F8AC2194F86410D4F80051C2F3D3
:1015A000C00262F3C30184F86410002D00F0FE86CF
:1015B0002868002800F0FA86426894F86430C4F87D
:1015C00000211BF0020F40F09D8794F8652003F086
:1015D0000703984502F0070201F06580A18DE980BC
:1015E0004FF0130C002129776B77AA7785F804C098
:1015F000294615F0FBFCD4F80051002D00F0E886D8
:101600002868002800F0E486B4F860304268C4F826
:101610000021B34209D34B4507D8B4F86230BB422E
:1016200003D30B9A934241F25280A4F86060A4F86D
:1016300062702B7FA28DEA8043F00303022109220E
:1016400029712B776A77B4F85E30B4F85C202B846C
:101650001523AA84EB7729466F84EE8415F0C6FC27
:1016600015F0CEFC6DE500BF8D49FD1A07000000A6
:1016700000CA9A3BD8EB02006CE802000CE80200BA
:101680007FC3C901FF596202783600202D83010013
:1016900010ED02008D49FD1AD582010061B30100F1
:1016A0004038002094F8EC3013F0030500F08482F9
:1016B00094F93D30002BBFF644AD012D7FF441ADD0
:1016C000BB4811F04DFC054600283FF43AAD0379C4
:1016D0000D2243F00303042700F108060371427151
:1016E000C7710C2130461BF0A3FA3146082204F1E1
:1016F000F60025F056F93A4605F1100104F19C0078
:1017000025F04FF9D4F8B031002B00F0E38694F8BF
:101710005221900700F1DE8694F8AB21D10700F149
:10172000D986D4F8BC21934204BF1A68C4F8BC21FE
:10173000D4F8B421002A01F02581D4F8B8311A6810
:101740002A601D602B68C4F8B851002B01F0CE80D0
:1017500015F07AFC054600283FF4F3AC2B7FA28DF0
:10176000EA8043F003030226172103222B776977CF
:10177000EA7704F2551108222E7105F1200025F0B8
:1017800010F994F8533185F8283094F8543185F8DD
:1017900029302868294615F029FC15F031FC94F809
:1017A000EC3066F3010384F8EC30CAE4E28E618E1B
:1017B00094F8EC300A443244DF0796B200F100811D
:1017C000B4F8F220B61A35043FF5BBAC94F8E83013
:1017D00084F8E93004F13805052204F1ED012846CA
:1017E00025F0DFF82846052111F084FD94F83D30FE
:1017F000012260F3050384F83D3084F8C421A0E49D
:101800006B4811F0ADFB00283FF49BAC94F8E83036
:1018100084F8E930012302794371D4F8B03142F001
:10182000030212210271C171002B00F0D48294F8DE
:101830005221910700F1CF8294F8AB21D20700F139
:10184000CA82D4F8BC21934204BF1A68C4F8BC21F0
:10185000D4F8B421002A01F06180D4F8B8311A68B4
:10186000026018600368C4F8B801002B00F0B4846B
:10187000B4F8CA30A4F8CC3063E44E4A4E494F481D
:1018800040F2BF3322F016FE404080F311884FF043
:10189000030002DF55E494F8192194F818C1624559
:1018A00054D194F8252194F824C1624500F01283A4
:1018B000A2EB0C02D1077FF544AC94F82631DA078D
:1018C00040F148879A0740F1328715F0BDFB014689
:1018D00000B394F8243184F82531037FA28DC280AF
:1018E00043F003030B77022006220C2308714A778A
:1018F000CB7794F82701B4F82821B4F82A31A1F85D
:10190000233081F82000A1F82120086815F06EFB33
:1019100015F076FB94F8E80094F8E9700CE402F016
:101920000701062901F2AE8101A050F821F000BFA5
:10193000051D000095110000951100009511000093
:10194000771C0000771C000095110000A2EB0C0230
:10195000D3077FF5F6AB94F8DC1011F0010700F027
:10196000E08315F071FB07460028D3D094F81831B6
:1019700084F81931037FA28DC28043F0030309224A
:10198000022041463B7738717A77FA7707F12000D9
:10199000082225F031F8D4F8203187F82030C3F33D
:1019A00007221B0C87F8212087F822303946ACE744
:1019B000C4380020D8EB02006CE802000CE80200FA
:1019C000CE4811F0CDFA054600283FF4BAAB238E7D
:1019D000027994F8EC1033440633A4F8F2306FF334
:1019E0000001012342F00302082084F8EC102A7160
:1019F0006871EB71052204F1ED01281824F0D1FF84
:101A0000D4F8B031B4F8F220A5F80D20002B00F086
:101A1000C88094F85221910700F1C38094F8AB215B
:101A2000D20700F1BE80D4F8BC21934204BF1A68EB
:101A3000C4F8BC21D4F8B421002A00F08287D4F87D
:101A4000B8311A682A601D602B68C4F8B851002BA1
:101A50007FF477ABC4F8C051FFF773BB012015F0DA
:101A6000D5FA064600283FF46CABA44811F078FA8A
:101A7000054600283FF465AB15F0E6FA238E326880
:101A800094F806014344063399B2D4F80031536008
:101A90002A79C4F800616FF301000C2384F8060171
:101AA000A4F8EC1042F003026B71D4F81031D4F8B2
:101AB000B001934E2A710022EA71A6FB032394F829
:101AC0001461B4F808212E72C3F38F23B4F80A61AD
:101AD000A5F80B20B4F80C21A5F80F20A5F80D608F
:101AE000A5F81110A5F80930002800F00C8394F82F
:101AF00052319E0700F1078394F8AB31D90700F10A
:101B00000283D4F8BC31984204BF0368C4F8BC31E6
:101B1000D4F8B431002B00F01F87D4F8B8311A681C
:101B20002A601D602868C4F8B85100287FF409AB0A
:101B300090E7022015F06AFA804600283FF401ABD6
:101B40006E4811F00DFA054600283FF4FAAA94F801
:101B5000EC306FF30003C3F3421242EA930212F037
:101B6000070784F8EC30DBB240F0C28594F8E82037
:101B7000A4F8EE70980784F8E92000F17A863B46D5
:101B8000394605226A712F722A796B72D4F8B03106
:101B9000698142F0030218212A71E971002B7FF458
:101BA00038AFD4F8B421002A7FF449AF2B60C4E9E0
:101BB0006C55C4F8B8514AE7504811F0D1F90646BF
:101BC00000283FF4BEAA94F93D30002B00F1040830
:101BD00080F2198494F87E301D0700F1088694F88D
:101BE000ED50002D00F0A184037994F8DC2043F03F
:101BF00003030371D00740F12886D4F81C3159073C
:101C000040F12386112203237572F27133727771CA
:101C1000D4F8B031002284F8ED20002B00F0CF84FE
:101C200094F85221920700F1CA8494F8AB21D707A7
:101C300000F1C584D4F8BC21934204BF1A68C4F8EB
:101C4000BC21D4F8B421002A00F0FD86D4F8B831C4
:101C50001A6832601E60C4F8B8613368002B00F067
:101C60001E8594F8E83084F8E930FFF76ABACAF8BC
:101C70000040FFF7FABA02F00702B4F89CC1B4F8CA
:101C8000A011B4F89E91B4F8A281A4F85EC0042A11
:101C9000A4F8621000F0B38494F89A31062262F33B
:101CA000020384F89A31D4F80071002F00F0938475
:101CB0003868002800F08F843B7F4268B4F82CE03D
:101CC000C4F8002143F0030302223B774FF0090AD6
:101CD0001523A7F806E0A7F820C079843A71FB77AE
:101CE0003946A7F82490A7F8268087F81DA015F09C
:101CF0007DF915F085F9FFF74DBA00BFC438002013
:101D00005917B7D1BE4811F02BF900283FF442AA69
:101D100094F89A21B4F89E11B4F8A231A4F8D61020
:101D20000127A4F8D83067F3020284F89A21092722
:101D30000279477194F8DC70D4F81CE1818142F09B
:101D4000030202711B224FF0140C00210272FA07E9
:101D500080F807C0417240F1B9831EF4006F00F0B3
:101D6000B583B3F5296F28BF4FF42963B3F5A47F7A
:101D700038BF4FF4A4734FF42961D4F8B0214181E6
:101D8000C381002A00F0348394F852319B0700F19C
:101D90002F8394F8AB31DF0700F12A83D4F8BC31EC
:101DA0009A4204BF1368C4F8BC31D4F8B431002B94
:101DB00000F0FF85D4F8B8311A6802601860026834
:101DC000C4F8B801002A00F04685B4F8CA30A4F877
:101DD000CC30FFF7DFB9D4F8B421002A7FF43DAD51
:101DE0000360C4E96C00C4F8B8013EE507FB113399
:101DF00040F2E24283489BB202FB03F3A3FB0001E3
:101E00007DA3D3E90023FEF7CBF92D1AFFF7B5BA6E
:101E10007D4A7E497E4840F6EE0322F04BFB40406F
:101E200080F311884FF0030002DF3868FFF75BBAD8
:101E3000E26C636C734E03FB1B23E3641BF03AF903
:101E4000804694F8DC00C0F382001BF035F908EB03
:101E5000000307FB03F36F48E26C94F8141103F5D9
:101E6000742303F23F23A0FB03034FEA934B0BFBC6
:101E70000AF07B080244963B9A4228BF1A4609FBA7
:101E800001FC4FF0000EC4E91232A0FB06015AA378
:101E9000D3E90023C4F854C0C4F8E4E0C4F844B063
:101EA000FEF77EF9D4F8103184465B48A0FB03307E
:101EB000800A09FB00F0A0FB06014FA3D3E9002331
:101EC000A5EB0C05FEF76CF9A7EB0B0620F07F489D
:101ED000FFF774BA94F871C194F87021944500F03A
:101EE0008F81DFF838A1DAF80020002A00F0E784BB
:101EF00094427FF426A994F8722102F00702052A81
:101F000000F2BD860FF2040C5CF822F021200000E4
:101F1000751F0000251F0000391100003911000055
:101F2000391100009B073FF50CA915F08DF801460B
:101F300000283FF4EFAC037F94F87221032060F394
:101F40000202034384F87221A08D0B770227182325
:101F50000F714B77B4F87421B4F87631C880B4F8B7
:101F600078010A84B4F87A214B840F238884CA84C8
:101F7000CB77CAE494F87371002F40F0358594F95B
:101F80003D30002BC0F2748594F8723194F87C01D6
:101F9000C4F81071052262F30203012284F8723141
:101FA00084F81421002800F03286B4F87431B3FBB1
:101FB000F0F3134413FB00F39BB294F8722194F8EE
:101FC0000601A4F80831C2F3C0039B0020F0070209
:101FD00043F002031343B4F87801B4F87A2184F88B
:101FE0000631013984F80511A4F80A01A4F80C217E
:101FF000FFF7A7B8AFF300808D49FD1A0700000076
:10200000C438002000CA9A3BD8EB0200FCEC020066
:102010000CE8020083DE1B435917B7D1403800207B
:10202000E048E78EB4F8328010F09AFF01460028AD
:102030003FF470AC94F872010A7907EB08030427A7
:1020400067F3020042F00302182784F872010A7154
:102050004F71B4F87471B4F87601B4F878210F8137
:102060003344B4F87A7148818A810F200022A1F8A4
:1020700011304FF0FF33CF81C8714B758B75CB7525
:102080000B764B768B76CB760B774B778B77204620
:102090000A74CA740A7516F019F8B4F8CA3094F8BC
:1020A000E80094F8E970CAF80040A4F8CC30FFF7D3
:1020B00043B8228E62457FF421A940F2E242B4F88F
:1020C0000CE1B4F8C61002FB03FA42F2107202FBF4
:1020D0000EA2013AB2FBFAF292B291427FF410A939
:1020E00003233B71FFF717B901221046022110F0BC
:1020F000DBFF6FF04700FFF72BB84FF4A479CDF862
:102100002C90FFF730BAD4F8B431002B7FF405AD32
:102110002860C4E96C55C4F8B85100287FF411A8B0
:1021200098E4A04810F01CFF804600283FF4F2AB72
:1021300094F819319C4AC4F81C21013B092284F807
:102140001931427194F93D200379002AACBF08226D
:102150000E2243F00303C271082203713946104472
:1021600024F04AFCD4F81C3188F80830C3F3072265
:102170001B0C88F8092088F80A30D4F8B031002BFD
:1021800000F0B48194F85221970700F1AF8194F8E0
:10219000AB21D00700F1AA81D4F8BC21934204BF3F
:1021A0001A68C4F8BC21D4F8B421002A00F00984CC
:1021B000D4F8B8311A68C8F80020C3F80080D8F8FD
:1021C0000030C4F8B881002B00F09483B4F8CA3012
:1021D000A4F8CC30FFF79EBBC4F8C001FFF748BBA2
:1021E00094F8642094F85C00C5F3820161F3020264
:1021F00084F864204A4615F001FF0646FFF7B9B996
:1022000094F8981194F899318B4200F0038294F875
:102210009A3103F00702062A00F222850FF2040C1D
:102220005CF822F0CB2200003911000039110000C7
:102230003911000041220000412200003911000044
:10224000B4F89C21A4F85E2003F00702B4F8A001C2
:10225000B4F89E91B4F8A281A4F86200042A00F0B8
:10226000E883062262F3020384F89A31D4F80071FD
:10227000002F00F08F833868002800F08B833B7FAD
:102280004268B4F82CC0C4F8002143F003033B7744
:10229000022209237B773A71B4F85E10B4F8622009
:1022A0007A841523A7F806C03984FB773946A7F846
:1022B0002490A7F8268014F099FE14F0A1FE94F85B
:1022C000E80094F8E970FEF737BF364810F048FE92
:1022D000014600283FF41EAB94F89A21B4F89E0101
:1022E000B4F8A231A4F8D6000127A4F8D83067F3D7
:1022F0000202092784F89A210A794F7194F8DC7058
:10230000888142F0030214204FF0000C0A71FF078D
:10231000D4F81C21C8714FF01B0081F809C0087265
:1023200040F19883100540F1ED83B3F5296F28BF84
:102330004FF42963B3F5A47F38BF4FF4A4734FF46F
:102340002962D4F8B001CB81B2F5A47F38BF4FF435
:10235000A4724A81002800F00A8394F852319B0746
:1023600000F1058394F8AB31DF0700F10083D4F866
:10237000BC31984204BF0368C4F8BC31D4F8B4310E
:10238000002B00F05F84D4F8B8311A680A60196035
:10239000C4F8B8110B68002B7FF418AFC4F8C01153
:1023A00014E700BFC4380020FF490100CC4ACD49E2
:1023B000CD4840F6676322F07DF8404080F31188F5
:1023C0004FF0030002DF286894F8ECB0FFF7F4B890
:1023D000C34AC449C44840F6936322F06BF84040B6
:1023E00080F311884FF0030002DF2868FFF70CB973
:1023F000D4F8B431002B7FF4DDAC0260C4E96C008A
:10240000C4F8B801DEE404F17F073B462A4604F134
:10241000EE0104F25D101CF07FFC3946102204F13D
:10242000A00024F0BEFA082204F1980104F1B900DA
:1024300024F0B7FA94F8970094F8B82094F87E3016
:1024400084F88F5043F0080365F3000042F0010266
:1024500084F8970084F87E3084F8905084F8915086
:1024600084F8925084F8935084F8945084F89550EE
:1024700084F89650C4F8B0504146C4F8B45084F87B
:10248000B820204615F0F0FFD4F8B031002B41D031
:1024900094F8522192073DD494F8AB21D70739D450
:1024A000D4F8BC21934204BF1A68C4F8BC21D4F804
:1024B000B421002A00F09082D4F8B8311A68326052
:1024C0001E603368C4F8B861FFF7C8BB4FF4A4734B
:1024D000194652E4D4F8B421002A7FF42EA92B60C7
:1024E000C4E96C55C4F8B851FFF72FB9D4F8B4213A
:1024F000002A7FF45DAEC8F80030C4E96C88C4F8E7
:10250000B88160E694F8652003F0070302F0070243
:10251000FFF764B8D4F8B421002ACDD13360C4E900
:102520006C66C4F8B861FFF799BB04F17F073B46BE
:102530002A4604F1EE0104F25D101CF0EDFB394671
:10254000102204F1A00024F02CFA082204F19801D2
:1025500004F1B90024F025FA94F8972094F8B81003
:1025600094F87E3084F88F5042F0010265F3000148
:1025700043F00803012084F8972084F8B81084F809
:102580007E3084F8905084F8915084F8925084F80A
:10259000935084F8945084F8955084F89650C4F879
:1025A000B050C4F8B45032797071D4F8B03142F000
:1025B000030205213271F171002B7FF431ABD4F8A5
:1025C000B421002A7FF442AB3360C4E96C66C4F8DE
:1025D000B861FFF742BB424A4249434840F637538D
:1025E00021F068FF404080F311884FF0030002DFC4
:1025F0003868B4F85EC0B4F86210FFF75DBBB4F899
:10260000A421002A40F0798184F89931A4F8CC20E3
:10261000FFF749BB94F8A83194F8A9219A423EF4F7
:1026200090AD94F8AA2102F00301032900F077820B
:1026300000297EF486AD2D4810F092FC014600285A
:102640003FF468A994F8AA3194F8AC2194F8AB71DE
:10265000012060F30103C3F3820060F30202C3F3BD
:10266000421060F30612C7F34007087984F8AA31D4
:1026700067F3C30284F8AC21C3F3820C40F003007B
:10268000C3F34213032716220871CA7181F808C0E8
:102690004B724F710022204615F018FD96E5C4F8E4
:1026A000C061FFF7DEBA92457EF498AF03232B7129
:1026B000294614F09BFCD4F80051002D00F07182E3
:1026C0002868002800F06D824368C4F800310323B5
:1026D0002B71294614F08AFC14F092FCFEF731BDF0
:1026E000D8EB0200FCEC02000CE80200C438002029
:1026F000238E33440633A4F8EE3014F0A5FCD8F84A
:102700000030D4F800215A60C4F8008114F09CFC19
:102710000368D4F800215A6094F8EC30B4F8EE1055
:10272000C4F80001C3F382075B09FFF72ABA40F639
:102730005633CA4ACA49CB4821F0BCFE404080F318
:1027400011884FF0030002DF94F8E80094F8E97074
:10275000FEF7F2BCC44810F003FC00283FF4DAA8EE
:1027600094F8252194F82631013A84F8252102793C
:1027700043F00103062184F8263142F0030241713F
:10278000D4F8B03102710B216FF00E020C270172E8
:10279000427205214FF0FF32C7718172C27202731B
:1027A000002B00F0C38094F85221970700F1BE80FF
:1027B00094F8AB21D10700F1B980D4F8BC21934241
:1027C00004BF1A68C4F8BC21D4F8B421002A00F070
:1027D0001882D4F8B8311A6802601860C4F8B801D9
:1027E0000368002B7FF4F2ACC4F8C001EEE441466C
:1027F000204615F039FED4F8B03183B394F8522155
:1028000095072CD494F8AB21D00728D4D4F8BC2158
:10281000934204BF1A68C4F8BC21D4F8B421002A3A
:1028200000F07781D4F8B8311A6832601E60C4F8BD
:10283000B8613368002B00F08C8094F8523123F09B
:10284000030384F85231FFF70CBA0D233572F3718C
:102850000227FFF7DCB9C4F8C001FFF7B6BAD4F815
:10286000B421002ADED13360C4E96C66C4F8B861D3
:10287000DFE714F0E9FB1323A28D88F81C7088F8B9
:10288000043094F86430D8F80000A8F80620C3F3A8
:10289000020388F81D3094F86530C3F3020388F80A
:1028A0001E30414614F0A2FB14F0AAFB94F8EC3061
:1028B000B4F8EE10C3F382075B09FFF762B994F82E
:1028C000722102F00702052A00F2D98101A050F816
:1028D00022F000BF21200000751F0000251F00000E
:1028E000431100004311000043110000C4F8C0511F
:1028F000FEF72EBFC4F8C08168E494F89A01B4F8DA
:10290000A671A4F89E21002363F3020084F89A01C3
:10291000A4F8A431A4F8A271FFF7C5B91A6802603F
:1029200018600368C4E96D00FEF79FBFD4F8B421B6
:10293000002A7FF44EAF0360C4E96C00C4F8B8010C
:102940004EE71A682A601D602B68C4E96D55FFF7D1
:102950007EB8C4F8C06170E703682B600560286822
:10296000C4E96D5500287EF4ECABFFF773B8D4F8DA
:10297000B431002B7FF407AD0860C4E96C11C4F8D2
:10298000B81107E51A682A601D602B68C4E96D5507
:10299000FEF7DBBE314A3549324840F6375321F065
:1029A00089FD404080F311884FF0030002DF386852
:1029B00065E41368036010600268C4E96D00FFF706
:1029C00001BA1A68C8F80020C3F80080D8F80030AF
:1029D000C4E96D88FFF7F7BB1A6832601E60336880
:1029E000C4E96D66FFF73AB91F4810F0B9FA01461D
:1029F00000283EF48FAF037943F003030B711120DD
:102A000003220F23C8714A710B7294F873314B7211
:102A10002046002215F05AFB94F8703184F8713189
:102A2000002394F8E80094F8E970CAF80030FEF743
:102A300083BBB4F8A421002A40F0C28084F8991125
:102A4000A4F8CC2012E41A6832601E60C4E96D66F6
:102A5000FFF703B94FF4A4731A4672E4D8EB0200EF
:102A60006CE802000CE80200C4380020FCEC020014
:102A70008C4810F075FA014600283EF44BAF0379FC
:102A8000182243F0030303714271B4F87421B4F8BF
:102A90007631B4F878010A81B4F87A214B81102399
:102AA0008881CA81CB7194F87C310B74B4F87E3183
:102AB000B4F88001B4F88221A1F81130B4F884315F
:102AC000A1F81300B4F88601A1F81520B4F8882104
:102AD000A1F81730B4F88A31A1F81D30A1F8190017
:102AE000A1F81B2020463A4615F0F0FA94F8703110
:102AF000CAF8007094F8E80094F8E97084F871312D
:102B0000FEF71ABBD2054FF4A47340F18D80A822C2
:102B100017E41A6832601E60C4E96D6689E6110721
:102B200084F8A931C2F3820361D594F8AA31022254
:102B300062F3840384F8AA3194F8AA3158064FEA64
:102B400053124CD5022262F3471384F8AA3194F849
:102B5000AA2194F864C094F8650094F8AB3100F0B1
:102B60000700C2F382010CF0070CC3F380038C450D
:102B700008BF00215B00B0EB521F43F001034FEA96
:102B8000521208BF002243EA4213B81E43EA8103EF
:102B9000062284F8E90084F8EC3084F8EA20FEF795
:102BA000F9BA414A4149424840F6766321F082FC35
:102BB000404080F311884FF0030002DF286883E56E
:102BC000002161F30203A4F89E21B4F8A62184F841
:102BD0009A31A4F8A411A4F8A221FFF747BBD107AA
:102BE00019D5012262F3471384F8AA31AFE7DA0757
:102BF0001DD594F8AA31012262F3840384F8AA3126
:102C00009AE71A6802601860C4E96D00E8E5B4F854
:102C10007631FFF7D2B912F0040218BF042262F332
:102C2000471384F8AA3192E71A46FFF78ABB13F0DC
:102C300004030ED094F8AA31042262F3840384F8CA
:102C4000AA3179E703680B600160C4E96D11FFF7F1
:102C5000A1BB94F8AA2163F3840284F8AA216BE74C
:102C6000114A1449124840F65F5321F023FC4040BA
:102C700080F311884FF0030002DFFEF74BBE40F6F1
:102C8000634356E5084A0B49094840F65F5321F073
:102C900011FC404080F311884FF0030002DFFEF783
:102CA00079BA00BFC4380020D8EB0200FCEC020067
:102CB0000CE802006CE802002DE9F04F9C4693B04E
:102CC0005CF80C6B1D46136886460C4660462E3138
:102CD000174605F1080A0322D3F80090CDF828E042
:102CE00005F11C0823F05DFE04F12A010422504680
:102CF00023F057FE04F13A010522404623F051FE2D
:102D00004046052110F0F6FA95F8213000F03F001A
:102D100060F30503012885F821300AD994F83F3083
:102D200003F01F02053AC3F304010B2A85F82210B1
:102D300002D913B0BDE8F08F3A6896F8DC10002095
:102D40009060B4F83480A5F8128094F8362094F896
:102D500037005B0942EA002263F38401AA82638E92
:102D600086F8DC10ADF830301AF0A4F9034696F876
:102D7000DC000B93C0F382001AF09EF90B9BDFF886
:102D800038C394F83110AA8A40F2E24B1FFA88F84F
:102D90000BFB08F8184408FB00F000F5742000F263
:102DA0003F20ACFB00C04FEA580C800C0BFB01F13C
:102DB000ACF1960CA862C5F82CC0E963218FB44B26
:102DC000ADF8361042F2107C89B20CFB0181B1489B
:102DD000434402F1060C0139B3FBF8F3B1FBF8F1FF
:102DE000A6F8C61099B261454044A6F8D210B0FBCF
:102DF000F8F0A6F8CA0002DD891A063989B2A6F8E9
:102E0000CE100422514606F1E00023F0CAFD237FD4
:102E100004F11E0B5946C3F38013062210A88DF847
:102E20003C3023F0BEFD237F4FF48072A28399F8DB
:102E30002A0097F812A0C3F340128DF838200B92A5
:102E400019F01AFB06220146002840F0ED8004F13B
:102E50002B0023F0D1FDBAF1FF0F00F0EF805946AF
:102E6000504604F11F0218F035FDA37F023310A96C
:102E7000A377062204F1250023F093FD96F8DC30B9
:102E8000698AAA8AA286C3F3820384F83830BDF81F
:102E90003630E3866186304615F036FC21462882BE
:102EA000E0807C680A9814F0A1F82B8AE380122352
:102EB00023710B9B2068002B00F0D08095F809E06F
:102EC0002B7A95F80BC0A97A95F8212041EA0C21BC
:102ED00043EA0E234B4042F0400201216B8485F807
:102EE00021202177214614F081F814F089F895F813
:102EF0004900012100F0070019F0FCFF664A4FF07D
:102F0000000A8346312300F25240A0FB02013360E5
:102F1000C6E901AA5CA3D3E90023FDF741F9FA68E9
:102F2000BDF83040AB6A40F2E24120F07F40A2F5AC
:102F3000AE7201FB0414F0600221144401205246D9
:102F4000A8EB030810F0B0F8484614F0B3FD821C5B
:102F5000524BCDF80090D2B25046012111F0B8FB8F
:102F60000128A4EB0B0400F0858099F82830DB07DA
:102F700078D4304615F0C8FBDFF81CB1A8FB0B89EC
:102F800041A3D3E90023054649464046FDF708F929
:102F9000434A069620F07F4AAAFB0223072101FB41
:102FA0000A3340F24511BF6808913E4907913E49F6
:102FB0000591B8EB020069EB0301F3680493002666
:102FC0004FF47A7200230396FDF7EAF82EA3D3E9B3
:102FD00000238446A4FB0B01CDE901ACFDF7E0F82A
:102FE000053520F07F40EDB2313F3B4600902A4648
:102FF0003046012111F000FB30F002030CD02B4AC7
:103000002B492C484FF4A37321F054FA404080F32D
:1030100011884FF0030002DF01221046022110F058
:1030200043F813B0BDE8F08F04F1240104F12B0044
:1030300023F0B7FCBAF1FF0F7FF411AF0622002195
:1030400004F1250023F0D8FC9DF83C30A37710A9AB
:10305000062204F11F0023F0A4FC0FE79DF838308E
:1030600023773FE70023012200931846114611F011
:103070002FFB7EE714F09CF881453FF476AF18F003
:103080004BF972E7AFF300808D49FD1A070000008D
:103090007FC3C901FF59620200CA9A3B45B30100D0
:1030A0008D49FD1AE9B2010061B30100CCED0200C7
:1030B00010ED02000CE8020083DE1B43000000005C
:1030C0003829F7B533D12AB9194603B0BDE8F04025
:1030D0001DF08CBB032A2AD14768C6681A49D3E978
:1030E0000002D31714461D46C1FB0045002C75F1A4
:1030F000000105DA154980FB0101841A61EB030523
:10310000134A002320462946FDF74AF80CA3D3E9C9
:103110000023AB4208BFA2420CD3C0B2B97A0090E0
:1031200030687F23172229F081FA03B0F0BD6FF0D9
:103130002200FAE76FF01500F7E700BFAFF3008059
:10314000FFACB6040000000040420F00C0BDF0FF1D
:103150005A6D0900000000002DE9F04F8FB00DF10D
:103160003701354F0B900DF1360013F0B5FF9DF888
:103170003730DFF8D8909DF836A00A9311F0EEFAB8
:103180003C68A4FB09452AA3D3E9002380462946CD
:103190002046FDF705F80B9B069383467868274B7E
:1031A0000593002622A3D3E90023A0FB0901CDE962
:1031B0000766FCF7F5FF224B2BF07F49A9FB03BC08
:1031C00020F07F40072303FB09CCCDE90360B4EB7B
:1031D0000B0065EB0C014FF47A720023FCF7E0FF63
:1031E0000A9A0096CDE9019043460321504611F01A
:1031F00003FA30F0020415D1124A1348002320F0DC
:103200007FFC68B19DF837209DF836000094234676
:10321000032111F05DFA6FF03B000FB0BDE8F08FB5
:10322000F868FAE76FF04700F7E700BFAFF30080F8
:103230008D49FD1A07000000943F002095150200FB
:103240008D49FD1A447B0B00A43F002000CA9A3B25
:1032500038B50F4D044611F081FAA96811F080FAD3
:103260000C49B0FBF4F40444686807A3D3E90023D5
:10327000A0FB0101FCF794FF20F07F40844294BF43
:103280000020012038BD00BF8D49FD1A0700000055
:10329000943F002000CA9A3B08B50146102204481A
:1032A00023F07FFB0348BDE8084020F003BC00BFCB
:1032B00078900020FC0D00202DE9F041044690B0EC
:1032C0001B480D4689881F46164621F0F3F8204614
:1032D000B5F804800BF07CFF0388434525D0B48803
:1032E0003168082C28BF08242246684623F059FB81
:1032F00010AB1C44A8880026694604F8406C00F016
:1033000043FB3A460B4908A803F0CCFB08A96846E2
:1033100023F02EFB4FF4203200233146684600F0A4
:10332000D9FA00F0CFFA00F05DFB10B0BDE8F081F3
:10333000CCF50200E8F50200024B1A80024820F0AA
:10334000B9BB00BF20890020CC0D002010B596B07D
:1033500009AB4FF47022CDE9042303930023CDE998
:103360000633CDF81F301F230DAAADF81C008DF8D1
:10337000233010212123184820F0F5FF174903A816
:1033800027F038F80DA820F09BFF08281BD80DA8BF
:1033900020F096FF02460DA9002403A828F083FE22
:1033A00006A90F480094234603AA27F04CF80146CB
:1033B00058B90C484FF42032002300F08BFA00F08B
:1033C00011FB16B010BD0822E5E707484FF4803224
:1033D00000232146F1E700BFE2F80200F105FB00FF
:1033E000E8020020F5F502000CF602002DE9FF418D
:1033F000BFF35B8F846ABFF35B8F14F00104064652
:1034000000F1280738D1DFF80481028AB8F80030CB
:10341000394D9A4234D1394821F04CF8CDE9005465
:10342000318A2346224620460FF07EFB002823DB0C
:10343000328A029440F2F153CDE90043114623460B
:10344000204628F035FD002816DBBFF35B8F57E8D8
:10345000003F43F0010347E80032002AF7D1BFF3F1
:103460005B8F304628F054FD254821F023F8338A3D
:10347000A8F8003000F0B6FA012004B0BDE8F081F1
:10348000204821F017F8CDE90054318A234622461E
:1034900020460FF049FB0028EEDB328A029440F20E
:1034A000F153CDE9004311462346204628F000FDA4
:1034B0000028E1DBBFF35B8F57E8003F43F00103D7
:1034C00047E80032002AF7D1BFF35B8F304628F07F
:1034D0001FFD0D4820F0EEFF308AFFF737FF002177
:1034E0004FF4203020F0C0FA00F07CFA00214FF4B5
:1034F000203020F0B9FABFE7E2F802001DF6020022
:1035000037F6020055F6020070F60200228900200C
:1035100030B5002099B004F051FF00F0ADFB7349C5
:10352000734826F0D1F900285BD1724820F0C2FF21
:10353000714820F0BFFF21F02FFD092303AA0421C9
:103540006E4820F010FF03A96D4820F0B3FF04F08F
:10355000CFFF01466B4820F0ADFF6B4820F0AAFF7B
:103560006A4820F0A7FF00F03DFA69480FF0C0FB61
:1035700010F1450F04462ED1664820F09BFF06ACA3
:103580001021204612F0C6FC63481022214623F089
:1035900008FA624820F08EFF02210DF10A0012F0B5
:1035A000B9FCBDF80A30002BF6D05D4D5848C3F386
:1035B0000E032B80ADF80A30CDE900340023194604
:1035C0001A4609F085F810F1450F01467AD15548A1
:1035D00020F070FF05E0002849D00146524820F055
:1035E00069FF524D0024AC60514B52489C60002151
:1035F0000FF02EFC504820F05DFF4C484FF4F022B5
:10360000002320F07DFA0B30EDD021230FAA1021EA
:103610004A4820F0A8FE4A480FA920F04BFF49482D
:1036200020F048FF022106A812F074FCBDF8182013
:10363000002AF7D00023C2F30E024048ADF818204C
:10364000194608F0C1FF0028CDDB39484FF4A0220D
:10365000002320F055FA0B30C5D03B4B3B4819886E
:1036600020F028FF3A480FA920F024FFBBE7394893
:1036700020F020FF212306AA1021254820F073FE08
:10368000354806A920F016FF214620460FF0F6FB2C
:10369000044620B90146314820F00CFF6FE730495D
:1036A0001022043023F07DF921230FAA10212C4889
:1036B00020F059FE2B480FA920F0FCFE204628F0F0
:1036C00037FC5CE708B1284889E721230FAA1021BD
:1036D000204620F048FE25480FA920F0EBFE2448A4
:1036E000298820F0E7FE234872E700BF58DD02007A
:1036F00068DD02008FF60200A7F60200F2F8020071
:10370000C1F60200D4F60200E7F60200FEF602005F
:1037100002F9020011F702006890002097F70200FA
:1037200022890020B2F7020023F70200FC0D0020DE
:10373000CC0D0020ED33000036F802007890002018
:103740005AF8020083F80200208900209FF8020046
:10375000C1F8020042F702004FF702005FF70200D3
:10376000E2F8020082F70200C9F70200E7F7020060
:10377000F6F7020018F8020000487047F2F802005D
:10378000024B1888003818BF01207047228900209A
:10379000014B1888704700BF2289002000487047FD
:1037A00002F9020000487047689000200048704706
:1037B000E2F802000146014820F0D8BAD81F0020E4
:1037C0002DE9F0410A4DDFF82C802868022102F033
:1037D0006BF80024C7B20F26234628680022414612
:1037E00001F06CFF3C44013EA4B2F5D1BDE8F0818C
:1037F000A820002012F902002DE9F04FDFF894B064
:1038000083B090469BF800201D4608321F4B00AF46
:1038100002F4FC720646ADEB020D894601461868BB
:1038200097F8304002F064F81BF80620954228BF54
:1038300015462A464146684623F0B3F8134B00224A
:103840000DF80520EA4698461CB11BF80640641B9B
:103850006408BB1DFA1D3146D8F8000002F054F888
:10386000BB79FA79D8F8000013FB09F312FB04F2D4
:103870009BB292B2514601F021FF10B1044820F0F2
:1038800019FE28460C37BD46BDE8F08FA820002061
:1038900042F90200780B0020094B13B51868C46880
:1038A000836801A95B68984720B92368019858404C
:1038B000C0F3C0100028D4BF0020012002B010BD0A
:1038C000AC200020024840F6CD420023FFF772BF33
:1038D000D00F00202DE9F74F284EDFF8A89083463F
:1038E00088463068012114461D4601F097FFFFF716
:1038F00067FF0027584600E018460346824613F843
:10390000012B202AF8D00A2AF6D0002299F802C00A
:103910001346864610F8011B0A2902D0202920D020
:1039200001BB73B1CDF80080524639460120FFF744
:1039300063FF1AF800300AEB000B13B10137032FB5
:10394000D8D1306801F07AFF6B1C08BFB4F1FF3F9B
:1039500011D00B4822462B4603B0BDE8F04FFFF7CD
:1039600029BF724601336345D3D912B1A2EB0A03D2
:10397000D7E76346D5E703B0BDE8F08FA820002065
:10398000A00F0020780B002070B5144D00230E26E8
:1039900006FB03F4625B6AB92853A01C0822284482
:1039A00022F0A3FF2E190E4A0123B38113680133BD
:1039B000136070BD90420DD1A01C2C4408222844F5
:1039C00022F093FFA3894FF6FF729342F1D00133A7
:1039D000A381EEE70133802BDAD1EAE724890020C6
:1039E000B420002070B5464DEAB00121286801F0EE
:1039F00015FFFFF7E5FE434A642106A820F067FDA6
:103A000001260021034606AA08460096FFF7F4FEA9
:103A100004F06EFD3C4A0346642106A820F057FDE1
:103A20000024034606AA314600942046FFF7E4FE30
:103A3000FFF7A2FE03AA0923042120F094FC03ABA4
:103A4000324A642106A820F042FD06AA034602215C
:103A500000942046FFF7D0FEFFF79AFE2C4A12682A
:103A600032440346009264212A4A06A820F02FFD22
:103A700006AA0346032100942046FFF7BDFEFFF788
:103A80008DFE1FAA6423082120F06DFC1FAB224A83
:103A9000642106A820F01BFD06AA03460421009419
:103AA0002046FFF7A9FEFFF781FE38AA642308210C
:103AB00020F059FC38AB194A642106A820F007FD14
:103AC00006AA0346052100942046FFF795FEFFF75E
:103AD00069FE51AA6423082120F045FC51AB104A2D
:103AE000642106A820F0F3FC06AA034606210094F0
:103AF0002046FFF781FE286801F0A0FE6AB070BD85
:103B0000A82000205CF9020068F9020078F90200A0
:103B1000B420002089F90200A4F90200B0F90200E3
:103B2000BCF90200024B1B780BB9FFF75BBF704773
:103B30008990002010B5174CFFF7AEFE217888421F
:103B400027D0154B154A164881F001012170002934
:103B500014BF1146194620F0ADFC23783BB1BDE8F7
:103B6000104010484FF400420023FFF723BE0D48D9
:103B700029F020FDFFF704FE20B9BDE810400A48F7
:103B800020F098BC094B1B781BB9BDE81040FFF72B
:103B900029BF10BD88900020D0F90200C8F90200AA
:103BA000D9F9020000100020E4F9020089900020F9
:103BB00010B40A460B49040101EB00130859197AA5
:103BC000012303FA01F1C3681B68194218BF82F090
:103BD00001021AB18368DB6810BC184783681B694F
:103BE000FAE700BF04030020002110B50846FFF7E4
:103BF000DFFF00210120FFF7DBFF00210220FFF79C
:103C0000D7FF0D4B18680E2802DD00221A6010BD88
:103C1000421C1A60032390FBF3F303EB4303C01A27
:103C20000121C0B2FFF7C4FFBDE81040034840F6D1
:103C3000CD420023FFF7BEBDB0200020D00F0020F2
:103C4000024800220023FFF7B5BD00BFA00F0020EF
:103C500008B5064B064800211970064B197020F074
:103C600029FCBDE80840FFF7EBBF00BF88900020AB
:103C7000FAF9020089900020F8B53D483D4D1FF04B
:103C8000DFF8286030B93C4820F014FC6FF01204D3
:103C90002046F8BD01F056FE044628B1374820F012
:103CA00009FC6FF00404F3E72868012101F0B6FD78
:103CB0003348344D1FF0C4F8286008B93248EEE7A5
:103CC00040F21112072120F0CBFA286807214FF4A7
:103CD000E82220F0B1FA2D492D4B28684B60802353
:103CE0008B608368DB690BB101229847294D002660
:103CF0002F4668681FF0A4F8286038B907EB06164D
:103D00002548716820F0D6FB2448C8E7EA68297A7C
:103D100042F4B052013620F0A3FA032E05F110054B
:103D2000E7D11F491F4829F03DFC1F491F4829F0D2
:103D300039FC1F491F4829F035FCFFF7ADFD1E4B2C
:103D400018700028A4D01D4820F0B4FB1C484FF484
:103D5000003200230021FFF7BDFD1A481FF070F864
:103D600083684FF400429B684FF4782198478FE7AF
:103D700014FA0200A82000201CFA020036FA020001
:103D800059FA0200AC20002060FA02009C200020BA
:103D9000353B0000040300207CFA020095FA020083
:103DA000E93B0000D00F0020253B0000A00F0020C1
:103DB000513C00000010002088900020A6FA02006C
:103DC000B7FA0200C8FA020030B50A4C0A44914220
:103DD00000D130BD11F8013B58400309E35C83EA90
:103DE0000013DDB2C3F30313E05C80EA0510C0B238
:103DF000EDE700BFE2FA02002DE9F04387B0214C65
:103E00009DF83C909DF8408006460F4610461946A6
:103E1000142550EA010317D1119C142D18BF013548
:103E2000A4F1150408BF30232C4408BF8DF81430CA
:103E300024EAE47414B1B9F1000F12D1142D15D98C
:103E4000D4B907B0BDE8F0830E9A0023FCF7A8F9B7
:103E5000A25C0DF8052084460B4660461946013DDC
:103E6000D7E739464046B047013CE3E71DF8050077
:103E70003946B0470135E1E739464046B047013C95
:103E8000DEE700BFF2FA02000B6801330B60014B62
:103E90001B68184734030020014B1860704700BFAF
:103EA000340300202DE9F04F002687B005468B46ED
:103EB0001C4602F1FF3A4FF0FF3837464FF0000939
:103EC00007E0B9F1000F0BD1252800F00A8159460F
:103ED000A8471AF8010F0028F3D107B0BDE8F08F0A
:103EE0007A280AD8622810D8302851D044D82528FA
:103EF00000F0F5802D2800F0FB8059462520A847CA
:103F00009AF800005946A847D8E7A0F16303172B99
:103F1000F3D801A252F823F0D7400000D93F0000A7
:103F2000FB3E0000FB3E0000FB3E0000BB3F0000EC
:103F3000D93F0000FB3E0000FB3E0000BB3F0000FD
:103F4000FB3E0000FB3E0000FB3E00005340000033
:103F5000FB3E0000FB3E00009F400000FB3E0000D7
:103F6000D93F0000FB3E0000FB3E0000813F000007
:103F7000FB3E0000BB3F0000392815D95828BCD1B2
:103F80009AF80030702B6ED154F8042B002375E0A2
:103F9000B8F1000F0BDA002F00F0AC80A0F1300870
:103FA000002F08BF022794E7B8F1000FF6DB0A23C1
:103FB00003FB0808A8F13008F2E7682803D1682E4F
:103FC00006D1482685E76C2802D16C2E00F094803B
:103FD000002E92D106467CE77A2E06D1A14659F8EA
:103FE000042BD317752823D10FE06C2EF6D04C2E5E
:103FF00005D1073424F00709F9E80223F2E7752810
:10400000226804F1040912D10023F81E18BF012010
:10401000012F0CBF3024202401900A20CDE9024852
:10402000009059462846FFF7E7FE4C4646E7D3176F
:10403000002A73F10001E8DA59462D20CDE9042366
:10404000A847DDE90423524263EB430308F1FF383C
:10405000DBE759463020A84759467820A8474FF05B
:10406000080801278CE76C2E8ED04C2E8CD1E31DD6
:1040700023F007031C465B6854F8082BF81E18BF92
:104080000120012F0CBF30212021CDE90218102181
:104090000190009128465946FFF7AEFE0EE754F80E
:1040A000043B99464A4619F8010B78B9032F25D1EC
:1040B000A2EB0309A8EB0909B9F1000F7FF7FEAEE7
:1040C00059462020A84709F1FF39F5E759460493DE
:1040D000A847049BE6E754F8040B594613E75946F2
:1040E00011E74E464F464FF0FF384FF00109F0E61A
:1040F0000327EEE60127ECE64C26EAE68146E8E6F1
:1041000007B50B46002102460191034801A9FFF7BC
:10411000C9FE03B05DF804FB893E000030B585B0F0
:10412000CDE90101044600250548039501A9FFF7E3
:10413000B9FEDDE902309842B8BF255405B030BD64
:104140008F4402002DE9F84FB0F8189019F00808D4
:10415000044693460DD001290CBF49F0100949F0DF
:104160002009A0F818908BF31188BFF36F8FBDE87A
:10417000F88F09F00709022907D1204620F0B4F989
:104180000028F0D00128238B4ED16769218B002FA6
:1041900015DA256821F00701C4E9008841F0010122
:1041A00021830026218B01F0070ACA4502D0A368AB
:1041B000002B5AD10DB9002E71D0002356E001F02A
:1041C00007035A1F012A1ED821F00701062B256874
:1041D00089B2C4E900880AD13DB1638B2A461268CE
:1041E00001339BB2002AFAD1638341F0020121839B
:1041F000204620F079F906460028D3D0238B43F0DF
:1042000020032383CDE7042B0CD121F0070189B2D1
:104210002183204620F068F905460028C1D041F0EE
:10422000200121830025BCE7032809D1226923F05E
:104230000703166843F00603238300252F46B1E7E2
:10424000042806D1226923F00703566843F00403CB
:10425000F2E7052806D1226923F00703966843F0A8
:104260000503E9E700252E46E8E7012341F00801B0
:1042700021838BF31188BFF36F8FFBB985BB16B118
:104280001F492046B0474FF02003EFF3118B83F313
:104290001188BFF36F8F238B23F008032383238BB5
:1042A000DA0625D523F0100323830121B4F81890F2
:1042B00009F0070900297FF45EAF54E7A1680029DF
:1042C000DCD0D1F80090D1F804B03B4652462046ED
:1042D000D847B9F1000FD1D04946D9F80090F2E79C
:1042E00029463B46524620462D6820F019F9C5E77D
:1042F00013F020011EBF23F0200323830221D5E702
:104300004D4502002DE9F04FA1B01E460023039059
:1043100089460293134613F8010B069358B12528DA
:1043200000F081804946039B9847013040F04A8461
:104330004FF0FF330293029821B0BDE8F08F2B2D90
:1043400065D05CD8202D65D0232D66D0002DF2D00D
:10435000CDF81880DDF81880A44818F8015B2946CC
:1043600022F0D6FA0028EAD12A2D63D156F8043B70
:104370000793002BBFBF5B42079301230D93069B5E
:1043800098F8005003F102082E2D78D198F80030EB
:104390002A2B71D156F8044B08F1010818F8015B7B
:1043A000934829462F4622F0B3FA00286AD04346A4
:1043B000682F13F8015B069307D1682D05D108F12A
:1043C000020398F8015006934827782D08D8572DF6
:1043D0005CD8252D00F0F28300F2A280002DAAD037
:1043E000039B4946252098470130A1D0039B4946AD
:1043F0002846984701309BD0029B0233E4E32D2DE1
:104400000ED0302D089B08BF01230893A0E701239D
:1044100009939DE701230C939AE74FF0010A97E770
:1044200001230D9394E7002308930C9309930D93B4
:104430009A468FE7A5F13003092B0790A4D80A22EA
:10444000DDF8188018F8015BA5F13003092B9BD823
:10445000079B02FB0355A5F13003CDE90683EFE787
:1044600001FB0434303C9046424612F8013BA3F174
:1044700030000928F4D991E700240A21F4E74FF02D
:10448000FF348DE7CDF8188007469EE7A5F1580365
:10449000202BA5D801A252F823F000BF214B000029
:1044A000E1430000E1430000E1430000E14300007C
:1044B000E1430000E1430000E1430000E14300006C
:1044C000E1430000E1430000F5450000CB46000059
:1044D0002D4500002D4500002D450000E143000062
:1044E000CB460000E1430000E1430000E14300004F
:1044F000E1430000AD4A0000214B0000D74A000014
:10450000E1430000E1430000F94A0000E1430000FC
:10451000214B0000E1430000E1430000214B00007B
:10452000A5F14503DBB2022B3FF65AAF073626F062
:1045300007031946F1E80223D80240EA5250D60296
:1045400020F0004004960590DDE90467002A0191FF
:10455000C3F30A5173F10003CDE9146780F2E580DB
:104560002D238DF864300DF1650740F2FF739942F9
:1045700040F0F680DDE904120A43A5F1410507F198
:10458000030340F0E280192D00F2D98049223A70ED
:104590004E227A704622002419AEBA70FC709B1B22
:1045A000A246A346099A002A40F07D820C9A002A6E
:1045B00040F079829DF86480A8F12D02D2F10008C4
:1045C00048EB02080BEB0A0633441E1920AB4344A8
:1045D00013F81C3C303B092B00F2FE82089B002B99
:1045E00000F0FD82079B19AF9B1B14E003FB020048
:1045F00009FB020032464FF0000852F8043B0192DA
:104600008DF864300126444619AF04EB08030024FA
:104610009B1BA246A34623EAE3739A190892079AC2
:104620009919551A0D9A12B9002D00F3ED8207EB76
:104630000802BA4240F0EA82013B80F0F582A6EB24
:104640000806BBF1000F10D0387807EB0608A0F180
:104650003003092BA8EB070640F2F182D846B8F1E7
:10466000010880F0F582A6EB0B06BAF1000F16D018
:1046700007EB060817F801BB039B494658469847C5
:1046800001303FF455AEBBF12E0FA8EB0706F1D178
:10469000D046B8F1000F00F3E482A6EB0A0694B10D
:1046A000387807EB0608A0F13003092BA8EB0706C2
:1046B00040F2E2822E2800F0DF82A046B8F1000F1F
:1046C00000F3E382361B3E44F2E23568331D002DD1
:1046D00001931CDA2D238DF8643069420DF16506D3
:1046E00030460A2220F005FA099B064419A8361A1A
:1046F000002B40F06C820C9B002B40F068824FEA4C
:10470000D578002C80DA0024A246A34666E7099BF0
:1047100023B12B238DF864302946DFE70C9B0BB1C6
:104720002023F7E7294619AEDAE7099B0BB12B23C3
:1047300017E70C9B0BB1202313E719AF15E769228C
:104740003A706E227A70662225E7192D99BF4E22A3
:1047500041216E22612194BF3A703A7079701AE754
:10476000049B05980B430E93CB1703430F93DDE98E
:104770000E23462D08BF6625134300F0078100294C
:1047800000F09F80159B43F00043A1F2FE38159383
:10479000002618F1020FC0F2A880B8F1000F00F354
:1047A000D48014A808F1010820F0C7F9B8F1040F6B
:1047B000F7D1002C05F0DF03B8BF0624472B40F0EB
:1047C000EE80F11C02DBB44280F2E380023DEDB2E8
:1047D000002C00F0EA80013CBAF1000F40F0E580C7
:1047E000002CD4BF4FF000084FF00108662D40F0B8
:1047F000DE8014EB060B4FF0660500F1DB80BBF1A9
:10480000100FA8BF4FF0100B1023139300224FF08E
:104810000063CDE91623BBF1010B80F0CE80149B21
:10482000169A17999B18159A41EB0202CDE914329A
:1048300002F07043109300231193DDE9102313431A
:1048400006D014A820F08BF914A820F076F90136D0
:10485000662D40F0CF80002E40F3B680139B002BD6
:1048600007DD13A914A820F0A3F9013E07F8010BF6
:10487000F4D1B3463B460026BAF1000F01D1002C1B
:1048800015DD2E2203F8012B002E00F0AE80002C47
:1048900040F3AD80C6F1000AA245A8BFA246A4EB32
:1048A0000A04002C03DD139A002A00F39480B8F167
:1048B000000F40F0B480002219AE1A709B1B71E605
:1048C0000139049BDB180493059B5B410593DDE9EB
:1048D0000423002A73F10003F2DADDE90423CDE9B1
:1048E00014234FE714A820F028F9DDE9142C002345
:1048F000CDF828C00B93DDE90A01002908BFB0F10B
:10490000333F08F10108EDD20520A2FB002300FB94
:104910000C33CDE91423013E4FF0000E00214FF07F
:10492000000C6FF0004B8C4508BF9B4506D2BEF1D2
:10493000000F3FF42EAFCDE914232AE792185B4114
:1049400008F1FF384FF0010EE8E714A820F007F94E
:10495000DDE9141008F1FF3801364FF0000E002396
:104960004FF0000C6FF0004B9C4508BF834506D20A
:10497000BEF1000F3FF411AFCDE914100DE7491857
:10498000404108F1FF384FF0010EE8E70026B0463D
:1049900007E7A41BBAF1000F04D1662520E74FF00A
:1049A000000823E74FF0000823E74FF0000804F168
:1049B000010B24E74FF0000B26E716A820F0CFF8F4
:1049C00016A820F0BAF826E73B46302203F8012B60
:1049D0004FF0000B50E713A914A80A9320F0E8F851
:1049E0000A9B013C03F8010B5BE7B24659E74FF025
:1049F000000A5CE713A914A820F0DAF83028387010
:104A000018BF06F1FF36BAF1000F37D1002C35DCA4
:104A10007B1CB8F1000F43D04FF0000BDA4619466B
:104A200013F8012D302AFAD02E2A18BF0B46002485
:104A300005F0DF02452A7FF43EAF002E1946BABFCB
:104A400076422D222B22632E01F8025B5A7008DD7C
:104A5000642096FBF0F202F13005D91C9D7000FB3A
:104A600012660A200B4696FBF0F200FB126602F17A
:104A70003005303603F8025B4E701CE72E22BB1C5B
:104A80007A70002CC5DD139A002AC2DD13A914A880
:104A90000A9320F08DF80A9B013C03F8010BF0E724
:104AA000C346C246C4E74FF001088BE53246682F83
:104AB00052F8043B019206D06C2F09D0482F07D141
:104AC000029A1A7001E0029A1A80019E069A21E465
:104AD000029A1A60F9E747F63003ADF864303346BE
:104AE000102253F8041B01930DF1660020F001F829
:104AF0004FF00208861C04E63346002C53F8047B72
:104B00000193B8BF6FF000440026B44203D126469B
:104B10000024A04679E5BB5D002B5BD00136F4E7AD
:104B2000331D6F2D3168019319D1BAF1000F08D0F0
:104B300030238DF8643079B98DF8651088460126E8
:104B4000DFE519AD284608221FF0D3FF19AEAD1BD3
:104B50002E184FF00008D4E50DF16505F2E7752D2C
:104B600005D10A2219A81FF0C4FF0646F1E7BAF1E1
:104B7000000F11D047F63003ADF864300DF1660731
:104B8000102238461FF0B5FF582D07D019AEBF1BB5
:104B90003E184FEA4A08B4E519AFF1E719AA12F82E
:104BA000013BA3F16101192903D8203B02F8013C24
:104BB000F5E712F8013C002BF1D1E7E7494628461A
:104BC000FFF7B1BB029B0133CDE901637DE74FF0F5
:104BD000010896E51C469CE719AF00231DE5089BDC
:104BE00019AF1AE509934946039B0792202098477D
:104BF0000130079A099B3FF49BAB013AF2D202992C
:104C000029440291154612E52A46F6E7099317F85A
:104C1000010B039B0792494698470130079A099B6D
:104C20007FF407ADFFF784BB07934946039B302011
:104C300098470130079B7FF4FFACFFF779BB039BDC
:104C40004946984701303FF473AB17F8010FFEE473
:104C5000039B49463020984701307FF400ADFFF7B1
:104C600067BB039B494630209847013008F1FF3865
:104C70007FF40FADFFF75CBB039B494698470130BB
:104C80003FF456AB17F8010F0DE5039B4946302062
:104C90009847013008F1FF387FF410ADFFF748BBAB
:104CA00017F8010B039B4946984701303FF440AB8E
:104CB000F31B002BF4DC029B089A002D1344029393
:104CC0007FF703AF2C4606E0039B49462020984718
:104CD00001303FF42DAB013CF6D2029B2B440293F2
:104CE000F3E600BF2DE9F7430E4680460821C06A6F
:104CF0001FF0EBFF3468124B241A0746346004EAB5
:104D000003059946AC4203D8002003B0BDE8F08308
:104D100008236A46214640461FF065FF0028F4D16B
:104D200068461FF0BDFF40B9BDF80230BDF8042051
:104D3000346005EA090513441D44E41BE2E700BFA3
:104D40000000FFFF2DE9F04F054695B0C06A08212D
:104D50001FF0BBFF6B681B0C1B04804603A9E8898E
:104D600003931FF0BCFF039BA98906AE1944A1EB76
:104D7000080108233246284604911FF034FF041E20
:104D8000C0F29980EB6A1A790023F15C914240F0FD
:104D900081800133082BF8D1039928461FF0AAFF20
:104DA000044688E0049BBDF81A201B0C1B04134426
:104DB0000493DFF80CB1DDF810A008AA04A9284676
:104DC0001FF0C0FF0446002875D108A81FF068FF37
:104DD000002836D16B6805930AAA05A92846059EC6
:104DE0001FF0B0FF0446002865D1BDF82820BDF8AB
:104DF00020309A4228D06A68059B9A42ECD15645E9
:104E00001FD1BDF82430E3B1BDF822300AEA0B0708
:104E10001F4408A8AB68ADF822301FF04DFFEB6AC5
:104E2000BDF824901E68764206F020030193B9F184
:104E3000000F0FD108A9284620F01CF804460028CE
:104E400039D1C245B7D1A7E70AA81FF029FF00282A
:104E5000D1D1D4E7019B4B4528BF4B460CAA39461C
:104E600028461E461FF0BFFE044620BB36B1A96887
:104E700033460CAA28461FF0B5FF0446E86A3146BF
:104E80001FF023FFAA680244AA60A4B9A9EB06098F
:104E90003744CCE70498A0EB080830461FF000FF29
:104EA00000283FF47FAF04A92846FFF71BFF044604
:104EB00000283FF47EAF204615B0BDE8F08F00BF5C
:104EC0000000FFFF2DE9F047044686B00D4600F1D3
:104ED0001406304628F03EF928461DF0B1FFA062C6
:104EE000002800F0D48083681B699847E06228B9E5
:104EF0006FF01505284606B0BDE8F087A06A836804
:104F00001B6998470368013B1F2BF1D8A06A2168F1
:104F100003AA27F028FF0028EAD1A389002BE7D0B5
:104F2000049AB3FBF2F502FB1535002DE0D1E389BD
:104F3000012BDDD9E36A009593F804904FF0FF321E
:104F40004FF0FF3330461EF03FF9E06A08211FF0B2
:104F5000BCFEA8460746E3891FFA85FA534552D896
:104F6000E389434500F0908053450BD10099082315
:104F70004A46C91B20461FF06EFE18B9E0896946F3
:104F80001FF0ADFE009BDA1B62604F4A1340A36026
:104F90009046D4E9011399420ED3082301AA204672
:104FA0001FF021FE054628BB01AB13F8012B9145EC
:104FB00070D10135082DF8D1D4E901318B4207D9E0
:104FC0005B1A4A4620461FF046FE051E12DB3DD105
:104FD0006368DFF8F480E08903EA08036946009318
:104FE0001FF07DFEA38900994A4620461FF033FE3C
:104FF000051E31DA30461EF05FF9002D7FF47AAFDE
:105000000123237476E7A1892B04C91B13FA81F1CC
:105010004A460823204600911FF01DFE78B1E08922
:1050200069461FF05CFE08F10108009908234A4612
:1050300020461FFA88F81FF00EFE002890D0013598
:1050400089E7002D3CD06FF01C05D3E7E26AA36826
:1050500012681344A360AFE7CCD0616820461FF00C
:1050600049FE05460028C5D16068A38900EA08000A
:105070001844A0EB4700606000EA0800A0602046EA
:10508000FFF760FE0546B5E76FF02005B2E76FF069
:1050900005052FE701A81FF003FE626880B9009B99
:1050A000BDF80600BDF8085003EA08030344A360F6
:1050B000E06A29461FF009FE03449342A360C0D072
:1050C000D21B626065E700BF0000FFFF2DE9F04FD3
:1050D0001E46037C89B0044689469046002B00F0AA
:1050E000C080C36A082118461FF0EFFD3146824692
:1050F00018461FF0EAFDA3890AEB4A029B1AB34245
:105100000746C0F0B1801EB1B8F1000F00F0AC80CE
:105110006368039304AA03A92046DDF80CB01FF0CE
:1051200011FE0546002865D1BDF810304B4505D06D
:105130006268039B9A42EDD1DEB95BE004A81FF0E0
:10514000AFFD0028F4D1BDF8143086B1B34210D1C0
:10515000BDF812004FEA1B410904014433464246A0
:1051600020461FF04EFD002803DC054642E0002BE0
:1051700040D0002F42D104F1140A4FF0FF324FF01B
:10518000FF335046DFF8ECB01EF01EF80022E38932
:105190009A4263D0D4E901317818834231D3FF2396
:1051A00006A8ADF81890ADF81A10ADF81C608DF88F
:1051B0001E301FF081FD36B1A168334642462046BD
:1051C0001FF010FE0546E06A31461FF07EFDA36821
:1051D0000344A360002D4AD106A920461FF04AFED1
:1051E0000546002843D13346019350461EF064F82B
:1051F000019B1D46284609B0BDE8F08F5744BFB259
:10520000B9E7E06A019208211FF05FFD4FF6FF71D8
:10521000ADF818100021ADF81C101918ADF81A10CF
:10522000A18903EA0B030B44181A606006A81FF05B
:1052300043FD06A920461FF01DFEE089211D1FF039
:105240004EFD636803EA0B03A3602046FFF77AFD77
:1052500003460028C8D1019A013298E76FF01B037A
:10526000C2E76FF00C05C5E76FF01505C2E72B46E6
:10527000BAE700BF0000FFFF094B30B51D68094BBE
:1052800002461C6800239D4201DC002030BD19014C
:1052900004EB0310615C9142F8D00133F3E700BFE7
:1052A00014DE020038030020084B1B6810B50C46C2
:1052B0002BB1FFF7E1FF28B12060002010BD6FF097
:1052C0000C00FBE76FF00100F8E700BF3803002097
:1052D00030B589B00C4615460190FFF7CDFFB8B147
:1052E0004368029383682268C068CDE903350023D0
:1052F000CDE9062305931FF02FFE60B1074901AAEF
:1053000027F035FD079808B9059B236009B030BD2B
:105310006FF01500FAE76FF01200F7E75D4F02003B
:10532000104B2DE9F0411C6805460E461746ACB1FE
:105330004FF0FF324FF0FF330B481DF045FF63681D
:105340003246D3F8088029463B462046C0470446EB
:1053500005481DF0B1FF2046BDE8F0816FF0010463
:10536000F9E700BFC0200020880D00200023036063
:10537000044B5A6812B9C3E90000704710605860C6
:10538000704700BFB8200020014B1860704700BF75
:10539000C020002030B585B000230546CDE902339A
:1053A00001904FF0FF330C484FF0FF321DF00CFF1F
:1053B0000A4B1C6834B1636820461B6801A99847F2
:1053C0002468F7E7284600F085F8044602481DF0F7
:1053D00073FF204605B030BD880D0020B8200020A6
:1053E0001FB5CDE9010103924FF0FF330A484FF09A
:1053F000FF321DF0E9FE094B1C6834B1636820469A
:105400001B6801A998472468F7E703481DF054FF7B
:10541000002004B010BD00BF880D0020B82000207F
:10542000024B0022C3E90022704700BFB8200020D1
:10543000024B0022C3E90022FFF7F2BFC420002084
:105440002DE9F34107460E4609B100230B601E4CBF
:10545000DFF87C800025444508D31C4B1C680CB148
:10546000143CC4B9284602B0BDE8F081216801AA05
:1054700038461FF098FD60B125B90EB1019B33602D
:10548000254606E02968206800221FF08CFD0028D0
:10549000F3D11434DFE7216801AA38461FF083FDF9
:1054A00060B125B90EB1019B3360254606E029683D
:1054B000206800221FF077FD0028F3D114F1140FAB
:1054C000D0D06469CBE700BFD0DB0200C42000204D
:1054D0005CDC0200F8B51A4C1A4F06460025BC42A7
:1054E00006D3194B1C680CB1143C9CB92846F8BD76
:1054F0001EB9E3684BB91434F1E720680022314645
:105500001FF051FD0028F4D1F5E79847002D08BFA2
:105510000546F0E736B9E36863B914F1140FE5D036
:105520006469E0E72068002231461FF03CFD002856
:10553000F1D1F2E79847002D08BF0546EDE700BF1F
:10554000D0DB02005CDC0200C420002010B5064C59
:1055500023783BB9FFF76CFF00F064F808B901232A
:10556000237010BD0020FCE78A9000202DE9F04751
:10557000048FDFF8ACA0013498B080468946A4B20D
:1055800000F10806651EADB2B5F5004F45D04A23BF
:1055900005AA294630461FF0D8FC04F57F543F3455
:1055A000A4B20746214601230DF10B0230461FF03D
:1055B000CCFC002F014603DC002803DC2C46E1E78D
:1055C000002816DCB8F83830AB4209D142466B1ED1
:1055D00022F8383F4FF4004102233046FFF776FDB2
:1055E000294630461FF057FC214630461FF053FC39
:1055F000E4E718AB1F44002307F84C3C5246CDF8B3
:10560000009003AB05A80396ADF810401FF004FD11
:105610000028D3D018B0BDE8F0870020FAE700BF1B
:105620007F5002007FB50123694604200193FFF7F4
:105630003BFE0446002836D102AA01A90420FFF748
:1056400047FE10F1130F04462DD038B10C3405D0AD
:10565000404080F311884FF0040002DF0399B1F558
:10566000803F23D2009A002395681846084485425B
:105670009CB203D30133082BF8D11C460D4D53685F
:10568000AB602846D368EC82A982EB631FF08BFDE8
:10569000044640B9084E6E602846FFF767FE28466C
:1056A0006E60FFF771FE204604B070BD6FF02404F9
:1056B000F9E700BFCC2000203C0300202DE9F04F8B
:1056C000554C1546A26887B088461E4682B12368AD
:1056D00073B1237D03EB430302EB830999F8063092
:1056E0005A0705D1637BDB0702D516F007072FD0D9
:1056F0004FF0FF3032E099F80530E28994F814C099
:10570000A0682B449342C8BF99F8063018F80720C8
:10571000C8BFF6180CEB4C0C94F91530029300EB53
:105720008C03C8BFB6B293F807A093F804E0C8BFD3
:105730000025524515D3197A914238BF20221EF018
:10574000010F10D10022029B1A441544ADB201375B
:10575000404621F0EBF88742CDD3002007B0BDE8EA
:10576000F08F2022EBE7597993F806B050F82C001F
:1057700011FB0BF1C908A2EB0A0202FB0102019224
:10578000002ADFD0627BC2F340029246CEF3800251
:105790000392F208049200215A799142D3D26A18F6
:1057A0004FF0000C05922EE0049AB4F80EE062442B
:1057B0001046059A00FB0E2E62689645C2D2019AE9
:1057C0000BFB012B039A1BF80CB0924516D04FEA45
:1057D0000B1242EA1B1BCBF385024FEA8B0B0BF03B
:1057E000CC0B02F033024BEA02024FEA620B52008A
:1057F0000BF0550B02F0AA0242EA0B0B226802F8EA
:105800000EB00CF1010C9A79BCEBD20F4FEAD20B1F
:10581000CAD30131C0E700BF0C21002008B5064BF8
:10582000186828B15A68002121F0E6F8002008BD68
:105830004FF0FF30FBE700BF0C21002070B5194B83
:1058400085681A6886B052B35A680392DA89198A51
:10585000ADF81020ADF814201A7BADF81210997D28
:1058600082F00402C2F3800281F001018A4214D165
:105870001B6800930022AC6803AB1146A04706B03A
:1058800070BDA15CC943A1540132DE89198A1C682C
:105890007143B2EBD10FF4D3EAE70022F5E74FF002
:1058A000FF30ECE70C21002004291CD8DFE801F0D0
:1058B0000306090C15000D4B188A70470B4BD8894D
:1058C00070470A4B987C7047084B5A7B188AD1075F
:1058D00008D59B7CB0FBF3F07047044B5A7BD8890A
:1058E000D207F6D570470020FCE700BF0C2100204E
:1058F000044BDA7C8A4286BF002019754FF0FF30D6
:10590000704700BF0C21002010B518460B4BDB7C04
:105910008B420FD92AB10A4C0C2303FB01435B795C
:10592000137030B1064B0C2202FB01318B790370EE
:10593000002010BD4FF0FF30FBE700BF0C2100201E
:105940005CDC02001FB58368194CDB696946984727
:105950001849194B5B1A9A10184B5343DBB2E37486
:105960001BB94FF0FF3004B010BDBDF80030BDF8DA
:105970000200208208225843A2749DF80C20227352
:1059800048BF0730029A6273C0100022E381226090
:10599000A282A275A16060601EF030FC2060002829
:1059A000DFD06268002121F027F80020DBE700BF8C
:1059B0000C2100205CDC020080DC0200ABAAAAAA59
:1059C00010B50748074C1DF03BFA074B18602046FE
:1059D00001F062F82046FEF75FFA002010BD00BF1C
:1059E000DC300300ED590000242100200A2838B5DE
:1059F000074D044604D1286883680D215B689847E9
:105A000028688368E1B25B689847204638BD00BFCC
:105A1000242100200E4A70B5841AA3100D4C5C435B
:105A20000546E4B20C2000FB04200E464021084449
:105A30001FF0DEFB011E05DB074B03EBC4046368AC
:105A40009847002128463346BDE87040184700BFFC
:105A500038210020B76DDBB62CDE02002DE9F041C5
:105A6000104E841BA310104C5C43E4B20C2565431C
:105A7000804605F140000F46304440211FF0D1FB25
:105A8000011E09DB094A7319C3E90E27084B53F8B5
:105A90003430BDE8F041184740463B46BDE8F04190
:105AA000184700BF38210020B76DDBB685520200D1
:105AB0002CDE0200002270B501210446104600F0E1
:105AC0005BFD002000F026FD0F481CF0C9FA0F4BCB
:105AD000984215D127F0D3F9E6680D4930461EF0FB
