:10000000F0B50020598100003BD302008981000037
:1000100089810000898100008981000000000000C2
:10002000000000000000000000000000E97E000069
:100030008981000000000000A17E000099C102003B
:10004000198100000D2102001981000019810000B2
:100050001981000019810000198100001981000038
:100060001981000019810000198100001981000028
:100070001981000019810000198100001981000018
:100080001981000019810000198100001981000008
:1000900019810000198100001981000019810000F8
:1000A00019810000198100001981000019810000E8
:1000B00019810000198100001981000019810000D8
:1000C00019810000198100001981000019810000C8
:1000D00019810000198100001981000019810000B8
:1000E00019810000198100001981000019810000A8
:1000F0001981000019810000198100001981000098
:1001000081F0004102E000BF83F0004330B54FEAC8
:1001100041044FEA430594EA050F08BF90EA020F35
:100120001FBF54EA000C55EA020C7FEA645C7FEAC8
:10013000655C00F0E2804FEA5454D4EB5555B8BFEB
:100140006D420CDD2C4480EA020281EA030382EA5C
:10015000000083EA010180EA020281EA0303362DEE
:1001600088BF30BD11F0004F4FEA01314FF4801CC1
:100170004CEA113102D0404261EB410113F0004FD3
:100180004FEA03334CEA133302D0524263EB43038A
:1001900094EA050F00F0A780A4F10104D5F1200E28
:1001A0000DDB02FA0EFC22FA05F2801841F1000183
:1001B00003FA0EF2801843FA05F359410EE0A5F157
:1001C00020050EF1200E012A03FA0EFC28BF4CF088
:1001D000020C43FA05F3C01851EBE37101F000453E
:1001E00007D54FF0000EDCF1000C7EEB00006EEB4B
:1001F0000101B1F5801F1BD3B1F5001F0CD34908D5
:100200005FEA30004FEA3C0C04F101044FEA44522B
:1002100012F5800F80F09A80BCF1004F08BF5FEAB2
:10022000500C50F1000041EB045141EA050130BD92
:100230005FEA4C0C404141EB0101013C28BFB1F5A4
:10024000801FE9D291F0000F04BF01460020B1FAEF
:1002500081F308BF2033A3F10B03B3F120020CDAC2
:100260000C3208DD02F1140CC2F10C0201FA0CF0A0
:1002700021FA02F10CE002F11402D8BFC2F1200C05
:1002800001FA02F120FA0CFCDCBF41EA0C019040BB
:10029000E41AA2BF01EB0451294330BD6FEA040404
:1002A0001F3C1CDA0C340EDC04F11404C4F12002EF
:1002B00020FA04F001FA02F340EA030021FA04F301
:1002C00045EA030130BDC4F10C04C4F1200220FA58
:1002D00002F001FA04F340EA0300294630BD21FA96
:1002E00004F0294630BD94F0000F83F4801306BF5C
:1002F00081F480110134013D4EE77FEA645C18BF50
:100300007FEA655C29D094EA050F08BF90EA020FE6
:1003100005D054EA000C04BF1946104630BD91EADE
:10032000030F1EBF0021002030BD5FEA545C05D1E1
:100330004000494128BF41F0004130BD14F5800420
:100340003CBF01F5801130BD01F0004545F0FE4194
:1003500041F470014FF0000030BD7FEA645C1ABFC9
:10036000194610467FEA655C1CBF0B46024650EA00
:10037000013406BF52EA033591EA030F41F400212C
:1003800030BD00BF90F0000F04BF0021704730B5B2
:100390004FF4806404F132044FF000054FF0000187
:1003A00050E700BF90F0000F04BF0021704730B548
:1003B0004FF4806404F1320410F0004548BF40421D
:1003C0004FF000013EE700BF42004FEAE2014FEA72
:1003D00031014FEA02701FBF12F07F4393F07F4F4D
:1003E00081F06051704732F07F4208BF704793F050
:1003F0007F4F04BF41F40021704730B54FF4607463
:1004000001F0004521F000411CE700BF50EA010265
:1004100008BF704730B54FF000050AE050EA01020E
:1004200008BF704730B511F0004502D5404261EB7E
:1004300041014FF4806404F132045FEA915C3FF4BF
:10044000D8AE4FF003025FEADC0C18BF03325FEA5C
:10045000DC0C18BF033202EBDC02C2F1200300FA0D
:1004600003FC20FA02F001FA03FE40EA0E0021FA32
:1004700002F11444BDE600BF70B54FF0FF0C4CF420
:10048000E06C1CEA11541DBF1CEA135594EA0C0FD2
:1004900095EA0C0F00F0DEF82C4481EA030621EA0D
:1004A0004C5123EA4C5350EA013518BF52EA033548
:1004B00041F4801143F4801338D0A0FB02CE4FF0FA
:1004C0000005E1FB02E506F00042E0FB03E54FF02A
:1004D0000006E1FB03569CF0000F18BF4EF0010E22
:1004E000A4F1FF04B6F5007F64F5407404D25FEA1E
:1004F0004E0E6D4146EB060642EAC62141EA5551D1
:100500004FEAC52040EA5E504FEACE2EB4F1FD0C12
:1005100088BFBCF5E06F1ED8BEF1004F08BF5FEA90
:10052000500E50F1000041EB045170BD06F0004642
:1005300046EA010140EA020081EA0301B4EB5C04EF
:10054000C2BFD4EB0C0541EA045170BD41F48011E7
:100550004FF0000E013C00F3AB8014F1360FDEBF0C
:10056000002001F0004170BDC4F10004203C35DAE8
:100570000C341BDC04F11404C4F1200500FA05F36B
:1005800020FA04F001FA05F240EA020001F000420C
:1005900021F0004110EBD37021FA04F642EB060182
:1005A0005EEA430E08BF20EAD37070BDC4F10C04AC
:1005B000C4F1200500FA04F320FA05F001FA04F270
:1005C00040EA020001F0004110EBD37041F100015C
:1005D0005EEA430E08BF20EAD37070BDC4F1200567
:1005E00000FA05F24EEA020E20FA04F301FA05F2CF
:1005F00043EA020321FA04F001F0004121FA04F277
:1006000020EA020000EBD3705EEA430E08BF20EA46
:10061000D37070BD94F0000F0FD101F00046400080
:1006200041EB010111F4801F08BF013CF7D041EA02
:10063000060195F0000F18BF704703F00046520006
:1006400043EB030313F4801F08BF013DF7D043EAD7
:100650000603704794EA0C0F0CEA135518BF95EA8D
:100660000C0F0CD050EA410618BF52EA4306D1D114
:1006700081EA030101F000414FF0000070BD50EA33
:10068000410606BF1046194652EA430619D094EABD
:100690000C0F02D150EA013613D195EA0C0F05D1A7
:1006A00052EA03361CBF104619460AD181EA0301FB
:1006B00001F0004141F0FE4141F470014FF00000B3
:1006C00070BD41F0FE4141F4780170BD70B54FF04E
:1006D000FF0C4CF4E06C1CEA11541DBF1CEA1355CE
:1006E00094EA0C0F95EA0C0F00F0A7F8A4EB0504B0
:1006F00081EA030E52EA03354FEA013100F08880A7
:100700004FEA03334FF0805545EA131343EA12636F
:100710004FEA022245EA111545EA10654FEA002624
:100720000EF000419D4208BF964244F1FD0404F5DD
:10073000407402D25B084FEA3202B61A65EB030539
:100740005B084FEA32024FF480104FF4002CB6EBF6
:10075000020E75EB030E22BFB61A754640EA0C0076
:100760005B084FEA3202B6EB020E75EB030E22BFB6
:10077000B61A754640EA5C005B084FEA3202B6EBF7
:10078000020E75EB030E22BFB61A754640EA9C00B6
:100790005B084FEA3202B6EB020E75EB030E22BF86
:1007A000B61A754640EADC0055EA060E18D04FEA44
:1007B000051545EA16754FEA06164FEAC30343EAE4
:1007C00052734FEAC2025FEA1C1CC0D111F4801FB1
:1007D0000BD141EA00014FF000004FF0004CB6E7AA
:1007E00011F4801F04BF01430020B4F1FD0C88BF49
:1007F000BCF5E06F3FF6AFAEB5EB030C04BFB6EB54
:10080000020C5FEA500C50F1000041EB045170BD46
:100810000EF0004E4EEA113114EB5C04C2BFD4EB73
:100820000C0541EA045170BD41F480114FF0000EF7
:10083000013C90E645EA060E8DE60CEA135594EA73
:100840000C0F08BF95EA0C0F3FF43BAF94EA0C0F76
:100850000AD150EA01347FF434AF95EA0C0F7FF4EB
:1008600025AF104619462CE795EA0C0F06D152EA3F
:1008700003353FF4FDAE1046194622E750EA410623
:1008800018BF52EA43067FF4C5AE50EA41047FF434
:100890000DAF52EA43057FF4EBAE12E77BB972B9B4
:1008A0000029BEBF00204FF0004106E008BF00282D
:1008B0001CBF6FF000414FF0FF3000F0CBB9ADF13D
:1008C000080C6DE904CE002909DB002B1ADB00F0CF
:1008D00061F8DDF804E0DDE9022304B0704740422E
:1008E00061EB4101002B1BDB00F054F8DDF804E064
:1008F000DDE9022304B0404261EB4101524263EB67
:1009000043037047524263EB430300F043F8DDF8C2
:1009100004E0DDE9022304B0404261EB410170478D
:10092000524263EB430300F035F8DDF804E0DDE903
:10093000022304B0524263EB4303704753B94AB9F0
:10094000002908BF00281CBF4FF0FF314FF0FF30D7
:1009500000F080B9ADF1080C6DE904CE00F01AF892
:10096000DDF804E0DDE9022304B07047430803F03A
:100970005533C01A830803F0333300F03330184482
:1009800000EB101000F00F3000EB002000EB0040F7
:10099000000E70472DE9F047089E0D4604468E462E
:1009A000002B40F082808A42174646D9B2FA82F282
:1009B0004AB1C2F1200105FA02F320FA01F1974091
:1009C00041EA030E94404FEA1748230CBEFBF8FCA3
:1009D000B9B208FB1CEE43EA0E430CFB01F098424F
:1009E0000AD9FB180CF1FF3580F01681984240F2CD
:1009F0001381ACF1020C3B441B1AA4B2B3FBF8F018
:100A000008FB103344EA034400FB01F1A14209D979
:100A10003C1900F1FF3380F00181A14240F2FE80D9
:100A200002383C44641A40EA0C4000211EB1D44014
:100A30000023C6E90043BDE8F08702B9FFDEB2FA41
:100A400082F2002A4FD1CB1B4FEA174E1FFA87F8CC
:100A50000121B3FBFEFC250C0EFB1C3345EA0345CC
:100A600008FB0CF3AB4207D97D190CF1FF3002D221
:100A7000AB4200F2E7808446ED1AA3B2B5FBFEF06C
:100A80000EFB105543EA054408FB00F8A04507D9C2
:100A90003C1900F1FF3302D2A04500F2D78018467E
:100AA000A4EB080440EA0C40C0E78B4208D9002EB2
:100AB00000F0AF800021C6E900050846BDE8F087D8
:100AC000B3FA83F100294BD1AB4202D3824200F248
:100AD000B780841A65EB030301209E46002EAAD03E
:100AE000C6E9004EA7E7C2F1200C01FA02F39740D5
:100AF00020FA0CF04FEA174E21FA0CFC1843BCFB0D
:100B0000FEF1050C0EFB11CC1FFA87F845EA0C45E7
:100B100001FB08F3AB4204FA02F409D97D1901F193
:100B2000FF3C80F08B80AB4240F2888002393D442C
:100B3000EB1A85B2B3FBFEF00EFB103345EA03451A
:100B400000FB08F3AB4207D97D1900F1FF3C71D2DD
:100B5000AB426FD902383D44EB1A40EA014178E7D5
:100B6000C1F1200C8B4022FA0CF71F4320FA0CF441
:100B700005FA01F34FEA174E25FA0CF51C43230C36
:100B8000B5FBFEF91FFA87F80EFB195543EA054538
:100B900009FB08FAAA4502FA01F200FA01F308D9A2
:100BA0007D1909F1FF3047D2AA4545D9A9F10209BB
:100BB0003D44A5EB0A05A4B2B5FBFEF00EFB1055B3
:100BC00044EA054400FB08F8A04507D93C1900F1A8
:100BD000FF352DD2A0452BD902383C4440EA0940CC
:100BE000A4EB0804A0FB02894C45C6464D4619D328
:100BF00016D05EB1B3EB0E0264EB050404FA0CFCF4
:100C0000CA404CEA0202CC40C6E900240021BDE8FB
:100C1000F087314630460EE7AC46EDE6184601E770
:100C20004345E6D2B8EB020E69EB07050138E0E771
:100C30002846D3E760468FE78146BAE7614677E703
:100C400008464BE7ACF1020C3D4415E702383C4442
:100C500026E700BF704700BF2DE9F04F5D4B1D78C0
:100C6000012D8FB000F0C880022D1BD0002D40F068
:100C70009E800AF069F91F22014606A82CF0E4FBC9
:100C80008DF8375006AB0A2113F8012B002A40F0EB
:100C90007C814FF0FF324FF0FF33012106A803F0B3
:100CA0000BFC84E04C4B4D4FDFF844A1DFF844913E
:100CB0000FCB02AE86E80F000021386806F038F945
:100CC00003F032FA464A0346202106A829F09CFF89
:100CD0000025034606AA29460095284603F044FB52
:100CE000DAF800303F4A0133202106A829F08CFFB2
:100CF0000095034606AA0121284603F035FBC846A5
:100D00004FF00E0BB9F80030DBB1B9F80C209AB1F6
:100D10003146002451F8043B002B05DA0EAB03EBFF
:100D2000840444F8305C07E00BFB03839B89934207
:100D300040D30134042CEDD10135802D09F10E0989
:100D4000E0D1DAF800307BB3274A284D202106A8ED
:100D500029F05AFF03460020009006AA022103F062
:100D600003FB03244FF00E0956F8043B002B1BDB5A
:100D700009FB03F39A1C4244019208EB030138F883
:100D8000033000938B892A46202106A829F03CFFD6
:100D90000346002004F1010A009006AA214603F050
:100DA000E3FABAF1070F12D1386806F0D1F80FB0A4
:100DB000BDE8F08F032CB1D0601C8000C4F10302A9
:100DC000011F9200314430442CF09AFBA6E75446B0
:100DD000CAE700BF9D8E002020210300D81F0020FD
:100DE000B93F0300CD3F0300DD3F0300F13F0300A7
:100DF000E41F002070870020694E0021306806F053
:100E000097F806A803F0FCF90446002840F0B980E2
:100E1000079B644A644893FBF2F34FF48071634A82
:100E20000093069B07F0C8FC214683B25E4A0094FB
:100E3000204603F099FA089B5D4A5B484FF48071A5
:100E400007F0BAFC584A009483B22946204603F0C2
:100E50008BFA06A803F0F8F90446002840F09180C8
:100E60000798FFF79FFA4CA3D3E90023FFF72EFC66
:100E7000804606988946FFF795FA0B460246494692
:100E80004046FFF743F94B4ACDE900014FF480712A
:100E9000454807F091FC444A009483B20221204661
:100EA00003F062FA0998FFF77DFA3BA3D3E9002328
:100EB000FFF70CFC804608988946FFF773FA0B464B
:100EC000024649464046FFF721F93B4ACDE9000179
:100ED0004FF48071344807F06FFC334A009483B2BA
:100EE0000321204603F040FA0B98FFF75BFA2AA390
:100EF000D3E90023FFF7EAFB80460A988946FFF70B
:100F000051FA0B46024649464046FFF7FFF82B4A86
:100F1000CDE900014FF48071234807F04DFC224ACF
:100F2000009483B20421204603F01EFA06A803F0C1
:100F3000A7F9044628BB069B214A1B484FF4807141
:100F400007F03AFC184A009483B20521204603F0CA
:100F50000BFA089B1B4A14484FF4807107F02CFCD5
:100F6000114A009483B20621204603F0FDF930684F
:100F700005F0EEFF4FF480320023134803F0EEF942
:100F800015E7124829F033FE11E72C2A08BF03F8B1
:100F9000011C79E6AFF300800000000080842E4140
:100FA000D81F0020A08601009E8E00200040030074
:100FB0001540030024400300304003003C40030080
:100FC0004840030053400300000E0020614003002E
:100FD00070B5454DD5F82431996811F0010188B0FC
:100FE00021D103AA40F6034008F0D2FE04460028AF
:100FF00076D1039B9B681B7893B93C4A136005F13B
:10100000980318462CF0C2FDBFF35B8F00F005007B
:1010100053E8002F43E800010029F9D1BFF35B8FAB
:10102000039824F03DFB03AA002141F2030008F0DD
:10103000AFFE0446002853D1039B2D48996808222F
:1010400001312CF074FA039824F02AFB214603AAFC
:1010500041F2010008F09CFE0446002840D10398AC
:1010600083685A7885F83820D9789A7842EA01223C
:101070006A871A7985F83920197ADA7942EA0122E1
:10108000AA875A799B7942EA0323EB8724F008FB6D
:10109000214603AA41F2020008F07AFE0446F8B99C
:1010A000039B14489968402201312CF040FA95F8CE
:1010B0006A30039843F0060385F86A3024F0F0FAAA
:1010C00095F844305A061DD40B4B0C490C48C91AEC
:1010D000C908890141F001012AF062F96FF0120498
:1010E000204608B070BD00BF68000020902100209D
:1010F000A8000020B0000020D81E0300B81F030085
:10110000598A0300214603AA42F2030008F040FE78
:1011100004460028E4D1039BB348996808220131B2
:101120002CF005FA039824F0BBFA214603AA42F2F8
:10113000020008F02DFE04460028D1D1039B9B68D5
:10114000B3F80120A5F8CC2091B221B1DA78A748F4
:10115000114630F0AEFA039824F0A2FA95F84460F4
:1011600016F0200600F0198195F864301B0711D5A0
:1011700003AA002142F21C0008F00AFE04460028DF
:10118000AED10398836853F8012F5B68C5E92A2321
:1011900024F086FA95F8A0309E0624D502A90DF118
:1011A000060008F0F7FF0446002899D1042142F216
:1011B000240008F091FC0646002800F0F580042188
:1011C00008302FF049FABDF806300380BDF808302A
:1011D00043802246314642F2240008F0D9FD0446FD
:1011E00000287FF47DAF95F8A0305C062CD5022155
:1011F00042F22E0008F070FC0446002800F0D48073
:10120000022108302FF028FA6FF07B0303700323CC
:1012100043702146002242F22E0008F0B9FD044638
:1012200000287FF45DAF014603AA42F22A0008F0CD
:10123000AFFD044600287FF453AF039883685B78C2
:1012400085F8E83024F02CFA082142F2010008F079
:1012500043FC0446002800F0A780082108442FF032
:10126000FBF995F8A01011F0400F024640F202235E
:1012700008BF032388074CBF43F02C0043F00C0049
:101280008B0695F8A13048BF40F0400013F0090FDD
:1012900095F86A3018BF40F4006003F00603CE07EB
:1012A00048BF40F01000062B08BF40F4C07000217A
:1012B0002CF0ADFC2146002242F2010008F068FD4E
:1012C000044600287FF40CAF95F8443098061ED4ED
:1012D000B5F8CC10D9B903AA41F2050008F058FDC1
:1012E000044600287FF4FCAEB5F8CC3063B9039B0C
:1012F0009B685A78997842EA0122A5F8CC209A880E
:101300003A48114630F0D5F9039824F0C9F908217C
:1013100040F6014008F0E0FB0446002844D00821D4
:1013200008442FF099F995F8A030D907024650D516
:101330002BA1D1E900012CF06AFC2146002240F6E5
:10134000014008F025FD044600287FF4C9AE01469F
:1013500002AA4FF6014008F01BFD254E254BF61A58
:10136000F608B601002851D0234846F002012AF0C1
:1013700017F80BF0C9F9044600287FF4B1AE1F49F5
:101380001F4830F018FAEB79002B40F0AC801D4874
:1013900046F003012AF004F8A2E6022140F66D406F
:1013A00008F09AFB044610B96FF0360498E6022163
:1013B00008302FF051F90123037046702146324660
:1013C00040F66D4008F0E4FC044600283FF4CCAE43
:1013D00086E60D484FF00051ADE700BFAFF3008047
:1013E00090880002008000200801002038010020C1
:1013F000B81F0300D81E03007D8A030049A1000026
:10140000A0010020518B030010880002029B394884
:101410009C68B4F80120032A96BF3749374951F830
:10142000221046F0030329F0DCFFB4F80110B4F8F1
:101430000320022946F003032ED1032A2CD8304979
:1014400051F822102F4829F0CCFF62792E48032A48
:1014500096BF2E49294951F82210CDE90312A279ED
:101460000592B4F807200692D4F80920079246F0B6
:101470000303052203A929F0E9FF029824F010F9DB
:1014800002AA00214FF6024008F082FC044628B16F
:101490001F4846F002016AE71849D3E7029B1D483E
:1014A0009968022201312CF042F8029824F0F8F8F1
:1014B00095F889305B077FF55CAF02AA21464FF6AD
:1014C000034008F065FC18B1134846F002014EE7EE
:1014D000029B12489968012211442CF028F80298C6
:1014E00024F0DEF845E704210D482CF065FB09F0F7
:1014F000E3FBF5E5A18A03002C26030032840300F8
:10150000EC250300BA8A0300D28A03006426030094
:10151000FF8A0300F1000020288B0300F000002068
:1015200000010020000000002DE9F041D0E90BC7C8
:10153000D0F828800CEB07043034A0450E46154641
:1015400018D81B4F18A3D3E90023ACFB0701FFF702
:10155000F5F9A4EB080420F07F40306012A3D3E932
:101560000023A4FB0701FFF7E9F920F07F40286082
:10157000BDE8F0810E4C0CA3D3E90023A8FB0401C5
:10158000FFF7DCF920F07F4307F130003360A0FB68
:10159000040105A3D3E90023FFF7D0F920F07F4031
:1015A0002860BDE8F08100BF8D49FD1A07000000EA
:1015B00000CA9A3B000000002DE9F04FB14C8FB0FB
:1015C000002800F0C78194F8D66016F0010637D1E4
:1015D00094F87C8094F8290094F82C2027272D2358
:1015E00007FB084800F0030017FB0237FF2384F8CD
:1015F0002A301FF0CDFE94F8D600410708F17D088F
:1016000004EB070900F12781E05D3146C0F380104B
:1016100018F07AFC06220146054609F102002BF07B
:1016200086FF2946062208F102002BF080FFE35DC9
:101630005A060AD413F00E0F40F0E480636A8BB1AF
:101640000C2630460FB0BDE8F08F062109F10200EC
:1016500017F0A0F8002800F03582E35D13F00E0FBC
:10166000ECD0CFE01BF034F98246002800F04F8226
:101670001BF03AF98346002800F062821CF0C2FC9D
:101680000546002800F059824FF6FF73806FAB8546
:1016900005F11C030B93002800F0358205F16C0264
:1016A00005F1680117F082F8B5F8642095F83DE07F
:1016B00095F8DC0095F8261195F840C0C5F830A1E2
:1016C00022F4EF6222F0070242F4887242F0010233
:1016D0000EF03F0E6EF07F0E20F0030021F00301AC
:1016E000A5F86420002262F3000C4FF01B1385F86C
:1016F0003DE085F8DC0085F826116348634985F8EC
:101700003F204FF0060EC5E913226A866A636A65B8
:10171000A5F8C820A5F8CC20A5F8E82085F8EA208F
:10172000C5F80021A5F80421A5F81821C5F8202145
:10173000A5F8242185F82F21AA67EB6585F840C01C
:101740002866A5F8C4E0C5F81C11A5F87C2095F81A
:1017500072E195F89AC195F87E0095F85211A5F8B6
:10176000502162F3C30C62F3041E21F0070120F044
:101770001F00A5F87021A5F89821A5F8A42185F8E7
:101780009AC185F872E185F8521185F87E001CF047
:1017900085FFA5F8D6001CF087FFD5F8A8313C4995
:1017A000A5F8D8001940C5F8A8111CF083FF95F8DA
:1017B000AC1160F3020185F8AC111CF081FFC4E9A3
:1017C00033AB0B9B636295F8AC1195F820C0ED61CB
:1017D0000301002203F0700321F078010B4362F350
:1017E000000CC5E96E22C5E96C22C5E90522C5F8E1
:1017F000C02185F8AC3185F820C021F0A5F800287B
:1018000040F06A8194F828300121C3F342030DA807
:101810008DF8343017F03EF9002800F09480E35D35
:1018200003F00F03022B35D0012B00F0598198F8FB
:1018300001201032D200002B40F0468199F801308F
:101840001033DB0003F54D710A4403F59A73013838
:1018500003FB00202AE0C0F3C000324604F1D701A8
:101860001FF0A6FFFF2884F82A0002D030461FF0A0
:101870005DFE494603481FF0D1FD024841461FF076
:10188000CDFDD4E67033002048014801FF49010036
:101890000000FFF699F801301033DB0000FB03F382
:1018A00003F5AA730138642202FB003094F820305B
:1018B000AD49E461002565F30003312284F820304E
:1018C0002260C4E90555A6A3D3E90023C4E9015564
:1018D000A0FB0101FFF732F8B4F8D490E06018F0F3
:1018E0000DFB8046B9F1000F07D1E55D05F00F054E
:1018F000A5F10105B5FA85F56D0994F8280065F3A1
:10190000000010F0010584F8280000F08980DFF85D
:101910006C92E36895490493002002250CAF019373
:101920000591CDE907970321CDE9020006942A46E7
:10193000009043460C9518F02FFA39461BF082F8B8
:10194000002800F0AC80636A002B3FF479AE1BF0F6
:10195000A7FB75E694F8D630DD077FF571AE20461B
:101960001BF098F884420CD0814A8249824840F2A8
:10197000337329F03CF9404080F311884FF00300A5
:1019800002DF94F82830D8070DAD0ED502220D9253
:1019900003217A4B00950122002018F069FA2946AC
:1019A0001BF050F8002840F0D08002220321734B36
:1019B000009500200D9218F05BFA29461BF042F8C2
:1019C000002840F0A6806E481BF0A0F8002840F0E8
:1019D0008C806C481BF06AF884420CD0644A6549DC
:1019E000654840F2557329F002F9404080F31188B0
:1019F0004FF0030002DF636A0BB11BF051FB94F858
:101A0000D63000206FF3000384F8D6301BF006FFB9
:101A10000646002840D0002630460FB0BDE8F08FC3
:101A20005948E268594BDFF854E10694A9FB0001DC
:101A3000912707FB091102F247171F6004924B4AD6
:101A400009934FF002094FF6FF7C05920CAF44A3B7
:101A5000D3E90023CDE907E70295CDF83090CDF822
:101A60000CC0FEF76BFF4A46CDE9005043462846BE
:101A7000032118F03BF939461AF0E4FF00287FF4FF
:101A800062AF94F8D63043F0010384F8D6301BF0EF
:101A9000C5FE0028BFD101201FF058FCD1E53C490C
:101AA00005914AF2D8320092CDE90797CDE90300BB
:101AB000CDE9010006944346012203210C9518F05C
:101AC0006BF9D8E71226BCE5062B3FF4B7AE4FF40E
:101AD000DA734FF41B72BAE61BF0E2FA0326B0E5A4
:101AE0004FF4F2734FF47F72B1E6214A294922483C
:101AF00040F2527329F07BF8404080F311884FF098
:101B0000030002DF65E705F17000A867C6E5072658
:101B100097E51C481AF0CAFF84423FF491AD40F2A9
:101B20004C73134A1349144829F061F8404080F37C
:101B300011884FF0030002DF82E558461AF0DAFE02
:101B400050461AF0CBFE07267BE50E481AF0AEFF92
:101B500084423FF475AD40F23E73E2E7AFF300809C
:101B60008D49FD1A0700000000CA9A3B11CE010002
:101B700020310300103203003C2D030039CA01005C
:101B80008C33002070330020002AE784503400207A
:101B90001DD00100FC2F0300F8B5194E9DF8184028
:101BA00096F83C5015F0010720D196F824C0DFF8D4
:101BB00054E0B186E40004F018040CF0670C44EA29
:101BC000C01463F34205A2FB0E0144EA0C04912306
:101BD00003FB021186F83C5007A3D3E9002386F8E3
:101BE0002440FEF7ABFEB0633846F8BD0C273846FC
:101BF000F8BD00BFAFF300808D49FD1A070000005B
:101C000074340020002AE7842DE9F04F90F8243046
:101C1000044600F1270190F83C0003F0F903C0F3FB
:101C2000400060F386138DB084F8243018F06CF90E
:101C3000A68E94F820303C48E4610025A6FB000104
:101C400065F30003912202FB0611C4E9055584F8EF
:101C5000203033A3D3E90023FEF770FEA36B656049
:101C600006460933A6F1310293424FF0310132BFEB
:101C7000E360E560A563A560216018F03FF9069474
:101C8000B4F834A0294A2A4B2A4D80462648912789
:101C9000AAFB000107FB0A110DF12C09E768049764
:101CA000CDE90729002705934FF0020A1CA3D3E9C9
:101CB0000023CDF82CA00397FEF740FE651B1046CD
:101CC00019464FF47A720023FEF738FEAD09043549
:101CD000EDB22A464346029003210097384601960A
:101CE00018F05AF849461AF0ADFE054668B994F85E
:101CF0003C3043F0010384F83C301BF07FFB04468A
:101D000038B128460DB0BDE8F08F0C200DB0BDE80D
:101D1000F08F50461FF01AFB20460DB0BDE8F08F43
:101D20008D49FD1A07000000002AE78439CA010026
:101D3000C5D50100743400202DE9F04F044690F819
:101D4000E97090F8E80087428DB00D4616460ED037
:101D5000C01B00F0030002281BD094F82D2194F83A
:101D60002C319A4230D100200DB0BDE8F08F94F8AC
:101D7000523113F00108F0D194F8051194F80421C0
:101D80008A4200F09483B81E012384F8E90084F8A5
:101D9000EA3094F8983194F899219A4206D094F850
:101DA0009A2102F00601042900F0C58394F8EA7034
:101DB0007B1E052B00F26D83DFE813F05C0004034B
:101DC00080026B032E03A901294816F099FC58B331
:101DD00094F82C3184F82D310379022243F0030367
:101DE00042710371C271D4F8B03194F82E2102729D
:101DF0002BB394F85221910721D494F8AB21D20748
:101E00001DD4D4F8BC21934204BF1A68C4F8BC2185
:101E1000D4F8B421B2B91A68026018600368C4E942
:101E20006D000BB9C4F8C001B4F8CC0000289AD1F9
:101E3000B4F8C630012B0ED9A4F8CC3093E7D4F80F
:101E4000B42172B1D4F8B8311A680260186003681E
:101E5000C4F8B801E5E70133A4F8CC300DB0BDE813
:101E6000F08F0360C4E96C00C4F8B801D9E700BF83
:101E700014370020DFF840A4DAF80030002B00F01F
:101E80000285B4F83680628E94F806319044B044EE
:101E900013F003031FFA88F840F0EC83B4F8EC90D9
:101EA000A8EB09021FFA82FB12043FF556AF94F823
:101EB000701194F8712194F8040184F805018A42A4
:101EC00094F8E80084F8E90009D094F8722102F04F
:101ED0000702052A04BF84F87111A4F8CC30DAF89F
:101EE0000030D4F800719C4204BF0023CAF80030CF
:101EF000002F00F099853868002800F09585B4F827
:101F00000831E28D4168B4F80AC1C4F80011934267
:101F100000F0DB86B4F80CE1A28DFA800F210022DC
:101F2000FB83A7F820C0A7F822E039713A77394639
:101F30001AF0E6FC1AF0EEFC2368002B09DAD4E96B
:101F4000011223F000438A422CBFA91869182360AC
:101F5000CD1AE38DB4F8087113FB0BF39BB2B3FBFE
:101F6000F7F117FB01F292B293421FFA81FA80F067
:101F70004985D31AC44840F2E24202FB03F3A3FBB3
:101F80000001BFA3D3E90023FEF7D8FC20F07F4077
:101F90000544628E94F93D30A9EB0808D0443244E0
:101FA000904440F2E249002BA4F8328009FB07F785
:101FB000C0F24A85B54AB649B64840F6631328F0E0
:101FC00016FE404080F311884FF0030002DF4FF00F
:101FD00000083E46B4F80C21B4F80A11AE4BAF48E5
:101FE000218642F2107C0CFB02723B443844B3FB66
:101FF000F7F301F1060C013AB2FBF7F2B0FBF7F789
:1020000098B2A4F8C6206045B4F80821A4F8D2001C
:10201000A4F8CA70E28502DD401A063880B294F84E
:102020000631A4F8CE005B0744BF0023A4F8C830F3
:102030000221012023F0B2F8002202218146012072
:1020400016F002FC96494FF4E472204616F08EFB1F
:10205000421D5FFA82FA934B009452460121002000
:1020600017F006FF30F002030CD0884A8E498948E9
:1020700040F6921328F0BBFD404080F311884FF0EA
:10208000030002DF804BA6FB036730467CA3D3E945
:1020900000233946FEF752FC844AE368049320F09B
:1020A0007F4BABFB0223072000FB0B33B01A67EB1F
:1020B0000301089406944FF47A72002400237C4FA5
:1020C0007C4E079705960394FEF738FC2B46CDE926
:1020D00001B0CDF8008020465246012117F05CFE89
:1020E00030F002030CD0694A6F496A4840F6AC13DD
:1020F00028F07DFD404080F311884FF0030002DF9F
:10210000B9F1000F40F0FC856FF047002CE6E28E3D
:10211000638E94F8EC501A443244EF0796B2AB4603
:1021200000F11383B4F8EE20B61A37043FF515AE6C
:1021300094F8DC2094F8648094F865A094F8E81092
:10214000B4F8627084F8E910D60708F007080AF0BE
:10215000070A40F1DE85D4F81C21100540F1D9852D
:10216000B4F8D890B9F5296F28BF4FF42969B9F5AB
:10217000A47F4FF4296338BF4FF4A4790B9315F073
:102180001C0F40F03986B4F8606015F0E00F0CD0F9
:1021900094F8652094F85E00690961F3020284F8FE
:1021A00065200B9A1BF0B4FB074694F8AC2194F819
:1021B0006410D4F80051C2F3C00262F3C30184F882
:1021C0006410002D00F0FE862868002800F0FA86D2
:1021D000426894F86430C4F800211BF0020F40F00C
:1021E0009D8794F8652003F00703984502F00702E5
:1021F00001F06580A18DE9804FF0130C0021297753
:102200006B77AA7785F804C029461AF079FBD4F8D1
:102210000051002D00F0E8862868002800F0E486D0
:10222000B4F860304268C4F80021B34209D34B458A
:1022300007D8B4F86230BB4203D30B9A934241F201
:102240005280A4F86060A4F862702B7FA28DEA80AF
:1022500043F003030221092229712B776A77B4F82E
:102260005E30B4F85C202B841523AA84EB772946D2
:102270006F84EE841AF044FB1AF04CFB6DE500BF4E
:102280008D49FD1A0700000000CA9A3B90320300F6
:10229000AC2D03003C2D03007FC3C901FF5962022E
:1022A000C834002041DC0100C83303008D49FD1A09
:1022B000E9DB0100750C02009036002094F8EC3048
:1022C00013F0030500F0848294F93D30002BBFF633
:1022D00044AD012D7FF441ADBB4816F011FA05461F
:1022E00000283FF43AAD03790D2243F0030304279D
:1022F00000F1080603714271C7710C21304620F0CD
:1023000021F93146082204F1F6002BF010F93A4683
:1023100005F1100104F19C002BF009F9D4F8B0315B
:10232000002B00F0E38694F85221900700F1DE863E
:1023300094F8AB21D10700F1D986D4F8BC2193429F
:1023400004BF1A68C4F8BC21D4F8B421002A01F0F3
:102350002581D4F8B8311A682A601D602B68C4F84A
:10236000B851002B01F0CE801AF0F8FA054600288B
:102370003FF4F3AC2B7FA28DEA8043F003030226E7
:10238000172103222B776977EA7704F25511082287
:102390002E7105F120002BF0CAF894F8533185F81E
:1023A000283094F8543185F82930286829461AF0E5
:1023B000A7FA1AF0AFFA94F8EC3066F3010384F848
:1023C000EC30CAE4E28E618E94F8EC300A44324478
:1023D000DF0796B200F10081B4F8F220B61A350496
:1023E0003FF5BBAC94F8E83084F8E93004F13805E7
:1023F000052204F1ED0128462BF099F82846052125
:1024000016F048FB94F83D30012260F3050384F890
:102410003D3084F8C421A0E46B4816F071F900281F
:102420003FF49BAC94F8E83084F8E930012302795A
:102430004371D4F8B03142F0030212210271C1712C
:10244000002B00F0D48294F85221910700F1CF8242
:1024500094F8AB21D20700F1CA82D4F8BC21934290
:1024600004BF1A68C4F8BC21D4F8B421002A01F0D2
:102470006180D4F8B8311A68026018600368C4F843
:10248000B801002B00F0B484B4F8CA30A4F8CC3002
:1024900063E44E4A4E494F4840F2BF3328F0A7FB51
:1024A000404080F311884FF0030002DF55E494F8B8
:1024B000192194F818C1624554D194F8252194F853
:1024C00024C1624500F01283A2EB0C02D1077FF514
:1024D00044AC94F82631DA0740F148879A0740F176
:1024E00032871AF03BFA014600B394F8243184F89D
:1024F0002531037FA28DC28043F003030B770220B6
:1025000006220C2308714A77CB7794F82701B4F898
:102510002821B4F82A31A1F8233081F82000A1F84D
:10252000212008681AF0ECF91AF0F4F994F8E800A0
:1025300094F8E9700CE402F00701062901F2AE817B
:1025400001A050F821F000BF1D290000AD1D0000C2
:10255000AD1D0000AD1D00008F2800008F28000079
:10256000AD1D0000A2EB0C02D3077FF5F6AB94F88B
:10257000DC1011F0010700F0E0831AF0EFF90746D4
:102580000028D3D094F8183184F81931037FA28D34
:10259000C28043F003030922022041463B77387191
:1025A0007A77FA7707F1200008222AF0EBFFD4F8B7
:1025B000203187F82030C3F307221B0C87F8212035
:1025C00087F822303946ACE71437002090320300F8
:1025D000AC2D03003C2D0300CE4816F091F80546C3
:1025E00000283FF4BAAB238E027994F8EC10334400
:1025F0000633A4F8F2306FF30001012342F0030226
:10260000082084F8EC102A716871EB71052204F13E
:10261000ED0128182AF08BFFD4F8B031B4F8F2207D
:10262000A5F80D20002B00F0C88094F852219107E6
:1026300000F1C38094F8AB21D20700F1BE80D4F83A
:10264000BC21934204BF1A68C4F8BC21D4F8B42159
:10265000002A00F08287D4F8B8311A682A601D6019
:102660002B68C4F8B851002B7FF477ABC4F8C05185
:10267000FFF773BB01201AF053F9064600283FF418
:102680006CABA44816F03CF8054600283FF465AB57
:102690001AF064F9238E326894F806014344063335
:1026A00099B2D4F8003153602A79C4F800616FF30D
:1026B00001000C2384F80601A4F8EC1042F0030298
:1026C0006B71D4F81031D4F8B001934E2A71002206
:1026D000EA71A6FB032394F81461B4F808212E7262
:1026E000C3F38F23B4F80A61A5F80B20B4F80C21CA
:1026F000A5F80F20A5F80D60A5F81110A5F8093070
:10270000002800F00C8394F852319E0700F10783F3
:1027100094F8AB31D90700F10283D4F8BC31984268
:1027200004BF0368C4F8BC31D4F8B431002B00F006
:102730001F87D4F8B8311A682A601D602868C4F869
:10274000B85100287FF409AB90E702201AF0E8F8AE
:10275000804600283FF401AB6E4815F0D1FF0546D6
:1027600000283FF4FAAA94F8EC306FF30003C3F3A7
:10277000421242EA930212F0070784F8EC30DBB20F
:1027800040F0C28594F8E820A4F8EE70980784F829
:10279000E92000F17A863B46394605226A712F729C
:1027A0002A796B72D4F8B031698142F003021821A2
:1027B0002A71E971002B7FF438AFD4F8B421002AD4
:1027C0007FF449AF2B60C4E96C55C4F8B8514AE7AF
:1027D000504815F095FF064600283FF4BEAA94F92C
:1027E0003D30002B00F1040880F2198494F87E300B
:1027F0001D0700F1088694F8ED50002D00F0A1842B
:10280000037994F8DC2043F003030371D00740F10F
:102810002886D4F81C31590740F12386112203235E
:102820007572F27133727771D4F8B031002284F886
:10283000ED20002B00F0CF8494F85221920700F194
:10284000CA8494F8AB21D70700F1C584D4F8BC2121
:10285000934204BF1A68C4F8BC21D4F8B421002AFA
:1028600000F0FD86D4F8B8311A6832601E60C4F8F2
:10287000B8613368002B00F01E8594F8E83084F8C6
:10288000E930FFF76ABACAF80040FFF7FABA02F077
:102890000702B4F89CC1B4F8A011B4F89E91B4F842
:1028A000A281A4F85EC0042AA4F8621000F0B384E8
:1028B00094F89A31062262F3020384F89A31D4F82C
:1028C0000071002F00F093843868002800F08F8496
:1028D0003B7F4268B4F82CE0C4F8002143F00303C6
:1028E00002223B774FF0090A1523A7F806E0A7F864
:1028F00020C079843A71FB773946A7F82490A7F86D
:10290000268087F81DA019F0FBFF1AF003F8FFF7E7
:102910004DBA00BF143700205917B7D1BE4815F083
:10292000EFFE00283FF442AA94F89A21B4F89E11D1
:10293000B4F8A231A4F8D6100127A4F8D83067F370
:10294000020284F89A2109270279477194F8DC7011
:10295000D4F81CE1818142F0030202711B224FF086
:10296000140C00210272FA0780F807C0417240F18E
:10297000B9831EF4006F00F0B583B3F5296F28BF4B
:102980004FF42963B3F5A47F38BF4FF4A4734FF419
:102990002961D4F8B0214181C381002A00F0348339
:1029A00094F852319B0700F12F8394F8AB31DF0785
:1029B00000F12A83D4F8BC319A4204BF1368C4F8EA
:1029C000BC31D4F8B431002B00F0FF85D4F8B83115
:1029D0001A68026018600268C4F8B801002A00F0A2
:1029E0004685B4F8CA30A4F8CC30FFF7DFB9D4F884
:1029F000B421002A7FF43DAD0360C4E96C00C4F843
:102A0000B8013EE507FB113340F2E24283489BB236
:102A100002FB03F3A3FB00017DA3D3E90023FDF731
:102A20008DFF2D1AFFF7B5BA7D4A7E497E4840F6E4
:102A3000EE0328F0DCF8404080F311884FF00300EB
:102A400002DF3868FFF75BBAE26C636C734E03FB1E
:102A50001B23E3641FF0B8FF804694F8DC00C0F34A
:102A600082001FF0B3FF08EB000307FB03F36F487E
:102A7000E26C94F8141103F5742303F23F23A0FBD6
:102A800003034FEA934B0BFB0AF07B080244963B8F
:102A90009A4228BF1A4609FB01FC4FF0000EC4E918
:102AA0001232A0FB06015AA3D3E90023C4F854C094
:102AB000C4F8E4E0C4F844B0FDF740FFD4F81031A6
:102AC00084465B48A0FB0330800A09FB00F0A0FBB2
:102AD00006014FA3D3E90023A5EB0C05FDF72EFF5C
:102AE000A7EB0B0620F07F48FFF774BA94F871C18A
:102AF00094F87021944500F08F81DFF838A1DAF85E
:102B00000020002A00F0E78494427FF426A994F87C
:102B1000722102F00702052A00F2BD860FF2040CB2
:102B20005CF822F0392C00008D2B00003D2B0000BA
:102B3000511D0000511D0000511D00009B073FF575
:102B40000CA919F00BFF014600283FF4EFAC037FFE
:102B500094F87221032060F30202034384F8722187
:102B6000A08D0B77022718230F714B77B4F87421CF
:102B7000B4F87631C880B4F878010A84B4F87A21C0
:102B80004B840F238884CA84CB77CAE494F873718A
:102B9000002F40F0358594F93D30002BC0F274854C
:102BA00094F8723194F87C01C4F81071052262F334
:102BB0000203012284F8723184F81421002800F005
:102BC0003286B4F87431B3FBF0F3134413FB00F313
:102BD0009BB294F8722194F80601A4F80831C2F36C
:102BE000C0039B0020F0070243F002031343B4F834
:102BF0007801B4F87A2184F80631013984F8051196
:102C0000A4F80A01A4F80C21FFF7A7B8AFF30080DD
:102C10008D49FD1A070000001437002000CA9A3BB6
:102C200090320300B43303003C2D030083DE1B43CA
:102C30005917B7D190360020E048E78EB4F83280BB
:102C400015F05EFD014600283FF470AC94F8720167
:102C50000A7907EB0803042767F3020042F0030236
:102C6000182784F872010A714F71B4F87471B4F8BE
:102C70007601B4F878210F813344B4F87A71488131
:102C80008A810F200022A1F811304FF0FF33CF814D
:102C9000C8714B758B75CB750B764B768B76CB7677
:102CA0000B774B778B7720460A74CA740A751AF033
:102CB00097FEB4F8CA3094F8E80094F8E970CAF8BE
:102CC0000040A4F8CC30FFF743B8228E62457FF471
:102CD00021A940F2E242B4F80CE1B4F8C61002FBBC
:102CE00003FA42F2107202FB0EA2013AB2FBFAF2B0
:102CF00092B291427FF410A903233B71FFF717B9F9
:102D000001221046022115F09FFD6FF04700FFF7EA
:102D10002BB84FF4A479CDF82C90FFF730BAD4F843
:102D2000B431002B7FF405AD2860C4E96C55C4F8BC
:102D3000B85100287FF411A898E4A04815F0E0FCF1
:102D4000804600283FF4F2AB94F819319C4AC4F84D
:102D50001C21013B092284F81931427194F93D206C
:102D60000379002AACBF08220E2243F00303C2718C
:102D700008220371394610442AF004FCD4F81C31AF
:102D800088F80830C3F307221B0C88F8092088F85C
:102D90000A30D4F8B031002B00F0B48194F85221FD
:102DA000970700F1AF8194F8AB21D00700F1AA8119
:102DB000D4F8BC21934204BF1A68C4F8BC21D4F8EB
:102DC000B421002A00F00984D4F8B8311A68C8F890
:102DD0000020C3F80080D8F80030C4F8B881002B78
:102DE00000F09483B4F8CA30A4F8CC30FFF79EBB4F
:102DF000C4F8C001FFF748BB94F8642094F85C0065
:102E0000C5F3820161F3020284F864204A461AF095
:102E10007FFD0646FFF7B9B994F8981194F89931F7
:102E20008B4200F0038294F89A3103F00702062ADD
:102E300000F222850FF2040C5CF822F0E32E000071
:102E4000511D0000511D0000511D0000592E0000B1
:102E5000592E0000511D0000B4F89C21A4F85E20FA
:102E600003F00702B4F8A001B4F89E91B4F8A2816F
:102E7000A4F86200042A00F0E883062262F3020349
:102E800084F89A31D4F80071002F00F08F833868ED
:102E9000002800F08B833B7F4268B4F82CC0C4F854
:102EA000002143F003033B77022209237B773A7129
:102EB000B4F85E10B4F862207A841523A7F806C02F
:102EC0003984FB773946A7F82490A7F8268019F0B3
:102ED00017FD19F01FFD94F8E80094F8E970FEF76B
:102EE00037BF364815F00CFC014600283FF41EABF6
:102EF00094F89A21B4F89E01B4F8A231A4F8D6004F
:102F00000127A4F8D83067F30202092784F89A2130
:102F10000A794F7194F8DC70888142F00302142022
:102F20004FF0000C0A71FF07D4F81C21C8714FF054
:102F30001B0081F809C0087240F19883100540F128
:102F4000ED83B3F5296F28BF4FF42963B3F5A47F50
:102F500038BF4FF4A4734FF42962D4F8B001CB8189
:102F6000B2F5A47F38BF4FF4A4724A81002800F064
:102F70000A8394F852319B0700F1058394F8AB3132
:102F8000DF0700F10083D4F8BC31984204BF036826
:102F9000C4F8BC31D4F8B431002B00F05F84D4F80D
:102FA000B8311A680A601960C4F8B8110B68002BB0
:102FB0007FF418AFC4F8C01114E700BF1437002025
:102FC000FF490100CC4ACD49CD4840F6676327F060
:102FD0000EFE404080F311884FF0030002DF2868A6
:102FE00094F8ECB0FFF7F4B8C34AC449C44840F6BB
:102FF000936327F0FCFD404080F311884FF00300FD
:1030000002DF2868FFF70CB9D4F8B431002B7FF445
:10301000DDAC0260C4E96C00C4F8B801DEE404F180
:103020007F073B462A4604F1EE0104F25D1021F0D1
:10303000FDFA3946102204F1A0002AF078FA08229D
:1030400004F1980104F1B9002AF071FA94F897009C
:1030500094F8B82094F87E3084F88F5043F0080339
:1030600065F3000042F0010284F8970084F87E3096
:1030700084F8905084F8915084F8925084F89350DA
:1030800084F8945084F8955084F89650C4F8B05061
:103090004146C4F8B45084F8B82020461AF06EFEB9
:1030A000D4F8B031002B41D094F8522192073DD48E
:1030B00094F8AB21D70739D4D4F8BC21934204BF8C
:1030C0001A68C4F8BC21D4F8B421002A00F0908218
:1030D000D4F8B8311A6832601E603368C4F8B86139
:1030E000FFF7C8BB4FF4A473194652E4D4F8B421D7
:1030F000002A7FF42EA92B60C4E96C55C4F8B8519E
:10310000FFF72FB9D4F8B421002A7FF45DAEC8F8D8
:103110000030C4E96C88C4F8B88160E694F8652092
:1031200003F0070302F00702FFF764B8D4F8B421F4
:10313000002ACDD13360C4E96C66C4F8B861FFF7EA
:1031400099BB04F17F073B462A4604F1EE0104F2E5
:103150005D1021F06BFA3946102204F1A0002AF02C
:10316000E6F9082204F1980104F1B9002AF0DFF928
:1031700094F8972094F8B81094F87E3084F88F5023
:1031800042F0010265F3000143F00803012084F8D6
:10319000972084F8B81084F87E3084F8905084F832
:1031A000915084F8925084F8935084F8945084F8A5
:1031B000955084F89650C4F8B050C4F8B4503279A1
:1031C0007071D4F8B03142F0030205213271F1710F
:1031D000002B7FF431ABD4F8B421002A7FF442AB4A
:1031E0003360C4E96C66C4F8B861FFF742BB424A79
:1031F0004249434840F6375327F0F9FC404080F3FA
:1032000011884FF0030002DF3868B4F85EC0B4F8EC
:103210006210FFF75DBBB4F8A421002A40F0798169
:1032200084F89931A4F8CC20FFF749BB94F8A83171
:1032300094F8A9219A423EF490AD94F8AA2102F0A4
:103240000301032900F0778200297EF486AD2D4822
:1032500015F056FA014600283FF468A994F8AA31FF
:1032600094F8AC2194F8AB71012060F30103C3F32F
:10327000820060F30202C3F3421060F30612C7F348
:103280004007087984F8AA3167F3C30284F8AC21B7
:10329000C3F3820C40F00300C3F34213032716224A
:1032A0000871CA7181F808C04B724F710022204624
:1032B0001AF096FB96E5C4F8C061FFF7DEBA9245B6
:1032C0007EF498AF03232B71294619F019FBD4F82B
:1032D0000051002D00F071822868002800F06D82F6
:1032E0004368C4F8003103232B71294619F008FB09
:1032F00019F010FBFEF731BD90320300B433030028
:103300003C2D030014370020238E33440633A4F8E9
:10331000EE3019F023FBD8F80030D4F800215A60C1
:10332000C4F8008119F01AFB0368D4F800215A6030
:1033300094F8EC30B4F8EE10C4F80001C3F382073F
:103340005B09FFF72ABA40F65633CA4ACA49CB4846
:1033500027F04DFC404080F311884FF0030002DF5E
:1033600094F8E80094F8E970FEF7F2BCC44815F050
:10337000C7F900283FF4DAA894F8252194F82631FB
:10338000013A84F82521027943F00103062184F8EB
:10339000263142F003024171D4F8B03102710B21A1
:1033A0006FF00E020C270172427205214FF0FF32BE
:1033B000C7718172C2720273002B00F0C38094F84F
:1033C0005221970700F1BE8094F8AB21D10700F19C
:1033D000B980D4F8BC21934204BF1A68C4F8BC2158
:1033E000D4F8B421002A00F01882D4F8B8311A6851
:1033F00002601860C4F8B8010368002B7FF4F2ACD7
:10340000C4F8C001EEE4414620461AF0B7FCD4F8F7
:10341000B03183B394F8522195072CD494F8AB21A2
:10342000D00728D4D4F8BC21934204BF1A68C4F84A
:10343000BC21D4F8B421002A00F07781D4F8B83147
:103440001A6832601E60C4F8B8613368002B00F05F
:103450008C8094F8523123F0030384F85231FFF743
:103460000CBA0D233572F3710227FFF7DCB9C4F8EB
:10347000C001FFF7B6BAD4F8B421002ADED1336018
:10348000C4E96C66C4F8B861DFE719F067FA132382
:10349000A28D88F81C7088F8043094F86430D8F84D
:1034A0000000A8F80620C3F3020388F81D3094F842
:1034B0006530C3F3020388F81E30414619F020FA44
:1034C00019F028FA94F8EC30B4F8EE10C3F3820740
:1034D0005B09FFF762B994F8722102F00702052A2E
:1034E00000F2D98101A050F822F000BF392C000071
:1034F0008D2B00003D2B00005B1D00005B1D0000BC
:103500005B1D0000C4F8C051FEF72EBFC4F8C08197
:1035100068E494F89A01B4F8A671A4F89E210023F7
:1035200063F3020084F89A01A4F8A431A4F8A2710C
:10353000FFF7C5B91A68026018600368C4E96D0036
:10354000FEF79FBFD4F8B421002A7FF44EAF03608A
:10355000C4E96C00C4F8B8014EE71A682A601D601F
:103560002B68C4E96D55FFF77EB8C4F8C06170E7F9
:1035700003682B6005602868C4E96D5500287EF457
:10358000ECABFFF773B8D4F8B431002B7FF407AD80
:103590000860C4E96C11C4F8B81107E51A682A601C
:1035A0001D602B68C4E96D55FEF7DBBE314A354915
:1035B000324840F6375327F01AFB404080F3118819
:1035C0004FF0030002DF386865E4136803601060A1
:1035D0000268C4E96D00FFF701BA1A68C8F8002054
:1035E000C3F80080D8F80030C4E96D88FFF7F7BB56
:1035F0001A6832601E603368C4E96D66FFF73AB935
:103600001F4815F07DF8014600283EF48FAF03797E
:1036100043F003030B71112003220F23C8714A7179
:103620000B7294F873314B72204600221AF0D8F9CD
:1036300094F8703184F87131002394F8E80094F81C
:10364000E970CAF80030FEF783BBB4F8A421002A61
:1036500040F0C28084F89911A4F8CC2012E41A68D2
:1036600032601E60C4E96D66FFF703B94FF4A473BE
:103670001A4672E490320300AC2D03003C2D030087
:1036800014370020B43303008C4815F039F8014694
:1036900000283EF44BAF0379182243F00303037173
:1036A0004271B4F87421B4F87631B4F878010A8123
:1036B000B4F87A214B8110238881CA81CB7194F8A8
:1036C0007C310B74B4F87E31B4F88001B4F88221F7
:1036D000A1F81130B4F88431A1F81300B4F88601D0
:1036E000A1F81520B4F88821A1F81730B4F88A3170
:1036F000A1F81D30A1F81900A1F81B2020463A4678
:103700001AF06EF994F87031CAF8007094F8E80075
:1037100094F8E97084F87131FEF71ABBD2054FF4C2
:10372000A47340F18D80A82217E41A6832601E60ED
:10373000C4E96D6689E6110784F8A931C2F38203F2
:1037400061D594F8AA31022262F3840384F8AA3185
:1037500094F8AA3158064FEA53124CD5022262F36C
:10376000471384F8AA3194F8AA2194F864C094F815
:10377000650094F8AB3100F00700C2F382010CF051
:10378000070CC3F380038C4508BF00215B00B0EB3E
:10379000521F43F001034FEA521208BF002243EACE
:1037A0004213B81E43EA8103062284F8E90084F834
:1037B000EC3084F8EA20FEF7F9BA414A4149424820
:1037C00040F6766327F013FA404080F311884FF0FB
:1037D000030002DF286883E5002161F30203A4F8F7
:1037E0009E21B4F8A62184F89A31A4F8A411A4F873
:1037F000A221FFF747BBD10719D5012262F3471376
:1038000084F8AA31AFE7DA071DD594F8AA3101226E
:1038100062F3840384F8AA319AE71A680260186098
:10382000C4E96D00E8E5B4F87631FFF7D2B912F0DB
:10383000040218BF042262F3471384F8AA3192E706
:103840001A46FFF78ABB13F004030ED094F8AA318E
:10385000042262F3840384F8AA3179E703680B60D9
:103860000160C4E96D11FFF7A1BB94F8AA2163F3CD
:10387000840284F8AA216BE7114A1449124840F6E1
:103880005F5327F0B4F9404080F311884FF00300F4
:1038900002DFFEF74BBE40F6634356E5084A0B498C
:1038A000094840F65F5327F0A2F9404080F31188A1
:1038B0004FF0030002DFFEF779BA00BF1437002093
:1038C00090320300B43303003C2D0300AC2D030001
:1038D0002DE9F04F9C4693B05CF80C6B1D461368C5
:1038E00086460C4660462E31174605F1080A03222B
:1038F000D3F80090CDF828E005F11C0829F017FE58
:1039000004F12A010422504629F011FE04F13A0183
:103910000522404629F00BFE4046052115F0BAF875
:1039200095F8213000F03F0060F30503012885F889
:1039300021300AD994F83F3003F01F02053AC3F34F
:1039400004010B2A85F8221002D913B0BDE8F08FCC
:103950003A6896F8DC1000209060B4F83480A5F83E
:10396000128094F8362094F837005B0942EA00226E
:1039700063F38401AA82638E86F8DC10ADF83030E0
:103980001FF022F8034696F8DC000B93C0F3820088
:103990001FF01CF80B9BDFF838C394F83110AA8A8B
:1039A00040F2E24B1FFA88F80BFB08F8184408FBBA
:1039B00000F000F5742000F23F20ACFB00C04FEA9D
:1039C000580C800C0BFB01F1ACF1960CA862C5F809
:1039D0002CC0E963218FB44BADF8361042F2107C55
:1039E00089B20CFB0181B148434402F1060C013954
:1039F000B3FBF8F3B1FBF8F1A6F8C61099B2614534
:103A00004044A6F8D210B0FBF8F0A6F8CA0002DDD8
:103A1000891A063989B2A6F8CE100422514606F159
:103A2000E00029F084FD237F04F11E0B5946C3F307
:103A30008013062210A88DF83C3029F078FD237FF2
:103A40004FF48072A28399F82A0097F812A0C3F36A
:103A500040128DF838200B921EF098F9062201468C
:103A6000002840F0ED8004F12B0029F08BFDBAF125
:103A7000FF0F00F0EF805946504604F11F021DF081
:103A8000B3FBA37F023310A9A377062204F125001C
:103A900029F04DFD96F8DC30698AAA8AA286C3F324
:103AA000820384F83830BDF83630E38661863046CC
:103AB0001AF0B4FA21462882E0807C680A9818F04F
:103AC0001FFF2B8AE380122323710B9B2068002B9E
:103AD00000F0D08095F809E02B7A95F80BC0A97A10
:103AE00095F8212041EA0C2143EA0E234B4042F095
:103AF000400201216B8485F821202177214618F0AE
:103B0000FFFE18F007FF95F84900012100F00700BB
:103B10001EF07AFE664A4FF0000A8346312300F217
:103B20005240A0FB02013360C6E901AA5CA3D3E9BD
:103B30000023FCF703FFFA68BDF83040AB6A40F29F
:103B4000E24120F07F40A2F5AE7201FB0414F06068
:103B50000221144401205246A8EB030814F074FE1D
:103B6000484619F031FC821C524BCDF80090D2B27D
:103B70005046012116F07CF90128A4EB0B0400F05B
:103B8000858099F82830DB0778D430461AF046FA59
:103B9000DFF81CB1A8FB0B8941A3D3E9002305463C
:103BA00049464046FCF7CAFE434A069620F07F4A43
:103BB000AAFB0223072101FB0A3340F24511BF682B
:103BC00008913E4907913E490591B8EB020069EB27
:103BD0000301F368049300264FF47A7200230396DE
:103BE000FCF7ACFE2EA3D3E900238446A4FB0B0113
:103BF000CDE901ACFCF7A2FE053520F07F40EDB227
:103C0000313F3B4600902A463046012116F0C4F869
:103C100030F002030CD02B4A2B492C484FF4A373ED
:103C200026F0E5FF404080F311884FF0030002DFEB
:103C300001221046022114F007FE13B0BDE8F08FF8
:103C400004F1240104F12B0029F071FCBAF1FF0FFB
:103C50007FF411AF0622002104F1250029F092FC27
:103C60009DF83C30A37710A9062204F11F0029F02B
:103C70005EFC0FE79DF8383023773FE700230122F1
:103C800000931846114616F0F3F87EE718F01AFF75
:103C900081453FF476AF1CF0C9FF72E7AFF30080B7
:103CA0008D49FD1A070000007FC3C901FF59620258
:103CB00000CA9A3B590C02008D49FD1AFD0B020007
:103CC000750C020098340300C83303003C2D030038
:103CD00083DE1B43000000003829F7B540D12AB924
:103CE000194603B0BDE8F04022F094BC032A37D156
:103CF0004768C6681E49D3E90002D31714461D461B
:103D0000C1FB0045002C75F1000105DA194980FB63
:103D10000101841A61EB0305174A00232046294656
:103D2000FCF70CFE10A3D3E90023AB4208BFA2426C
:103D30000DD2124B12491348C91AC908890141F022
:103D4000010127F02DFB6FF0150003B0F0BDC0B2EC
:103D5000B97A009030687F2317222CF0BCFEF4E77C
:103D60006FF02200F1E700BFFFACB60400000000D6
:103D700040420F00C0BDF0FF5A6D0900D81E03007D
:103D8000E01E03007BBA03002DE9F04F8FB00DF168
:103D90003701354F0B900DF1360018F027FE9DF8D6
:103DA0003730DFF8D8909DF836A00A9316F0A6F8C1
:103DB0003C68A4FB09452AA3D3E900238046294691
:103DC0002046FCF7BBFD0B9B069383467868274B88
:103DD0000593002622A3D3E90023A0FB0901CDE926
:103DE0000766FCF7ABFD224B2BF07F49A9FB03BC18
:103DF00020F07F40072303FB09CCCDE90360B4EB3F
:103E00000B0065EB0C014FF47A720023FCF796FD72
:103E10000A9A0096CDE9019043460321504615F0D9
:103E2000BBFF30F0020415D1124A1348002326F0DC
:103E300085F968B19DF837209DF836000094234637
:103E4000032116F015F86FF03B000FB0BDE8F08FBE
:103E5000F868FAE76FF04700F7E700BFAFF30080BC
:103E60008D49FD1A07000000E43D0020C17A0200E0
:103E70008D49FD1A447B0B00F43D002000CA9A3B9B
:103E800038B50F4D044616F039F8A96816F038F821
:103E90000C49B0FBF4F40444686807A3D3E9002399
:103EA000A0FB0101FCF74AFD20F07F40844294BF53
:103EB0000020012038BD00BF8D49FD1A0700000019
:103EC000E43D002000CA9A3B08B5084826F08FFE62
:103ED00000F030F927F0D2FE00F01EF908B900F02A
:103EE00015F9BDE8084000F0B5BB00BF983D0300E0
:103EF00008B500F0D3FB034806F05AFFBDE80840C0
:103F000000F0E2B9C93E0000F0B5044689B0194896
:103F10000D468988164626F06AFE2046AF8810F0C6
:103F20004DF80388BB4204D1134826F060FE09B067
:103F3000F0BDB4883168082C28BF082422466846A2
:103F400029F0F5FA08AB1C44A8880026694604F855
:103F5000206C00F009FB0949684629F0B8FA4FF4D3
:103F6000203200233146684600F0A6FA00F09CFAA1
:103F7000DDE700BFBC3D0300D73D0300F33D030078
:103F800030B58DB04FF4702208ABCDE90323002487
:103F900002930123CDE90544ADF818301F238DF8B5
:103FA0001F30CDF81B4006F0CFFF1649054602A88A
:103FB0002BF0C9FF2246AB5CC3B9082A28BF0822F0
:103FC0002946002402A82CF04DFB234602AA05A98D
:103FD0000D4800942BF0E0FF4FF48032014600239F
:103FE00060B90A4800F068FA0DB030BD202BE4D06B
:103FF0002C2BE2D00A2BE0D00132DCE7044821462A
:10400000F0E700BFF105FB0058020020FC3D030073
:10401000153E030070B58CB004AE1021304617F089
:1040200003FC044600283BD1022503460246014614
:104030000196214800950CF09FFD044680BB1F4867
:1040400026F0D5FD1E4B01942246009329462346B7
:10405000204614F0C1FA40F2F153CDE90043029436
:1040600023462A46294620462CF031FA4FF488533D
:10407000019400932A462346294620462CF01AFA3A
:10408000104826F0B4FD2C460F4A23462021304626
:1040900026F0BAFD4FF4003200230021304606E03E
:1040A000002CF1DA09484FF480320023002100F09F
:1040B00003FA0CB070BD00BF9C3E0300253E030018
:1040C0007C3E0300353E0300623E03004D3E03008C
:1040D000014600F10803BFF35B8F53E8002F42F065
:1040E000010043E8000CBCF1000FF6D1BFF35B8F79
:1040F000D30702D401482DF097B97047F01E002075
:104100000148FFF7E5BF00BFB41F00200148FFF7DB
:10411000DFBF00BFC01F0020024B1888003818BF47
:104120000120704710020020014B1888704700BF23
:1041300010020020074A084908480023C2E9011379
:1041400013600749074AC2E90113074913602BF0BE
:10415000A7BA00BFB41F0020813F00007C220300EB
:1041600015400000C01F00206C22030010B50E484F
:1041700026F03DFDFFF7D0FF40B9BDE810400B49E8
:104180000B484FF06172002326F00EB90CF03EFC94
:10419000014638B110F1450F04D0BDE81040054884
:1041A00026F025BD10BD00BFAC3E0300D00D0020A1
:1041B000F01E0020B83E030010B50D4826F017FD94
:1041C000FFF7AAFF90B10CF073FC014628B110F183
:1041D000450F02D0074826F00AFDBDE81040064909
:1041E00006484FF06172002326F0DEB810BD00BF14
:1041F000D93E0300E23E0300D00D0020F01E002057
:1042000038B50F4D0446286826F0F1FB30B16968D7
:104210000C4826F0ECFC4FF0FF3010E028680D2130
:10422000224626F0E8FB0028F5D12868102104F189
:10423000080226F0E0FB003818BF0120404238BDDC
:1042400074020020023F030038B50B4D0446A868F5
:1042500026F0CDFB30B10948E96826F0C8FC4FF0E4
:10426000FF3038BDA8680321224626F0C4FB003881
:1042700018BF01204042F4E774020020023F03000F
:1042800038B50F4D0446286926F0B1FB30B1696995
:104290000C4826F0ACFC4FF0FF3010E028691121EB
:1042A000224626F0A8FB0028F5D128690F2104F149
:1042B000080226F0A0FB003818BF0120404238BD9C
:1042C00074020020023F030073B51C4C00262546F3
:1042D000606825F05BF8206050B905EBC60518480A
:1042E000696826F084FC6FF00F04204602B070BDB0
:1042F0000136042E04F10804EAD1A868114B019399
:1043000083689B6853B1104A01A99847044640B19D
:1043100021460E4826F06BFC0024E6E76FF02204ED
:10432000F6E70B490B482DF046FA0A490A484FF0C8
:104330006172002326F038F8D7E700BF740200202E
:10434000283F030002000300B9410000413F030081
:104350006D410000D00D0020F01E002001460148F4
:1043600026F022B8F01E00202DE9F04FDFF894B0BF
:1043700083B090469BF800201D4608321F4B00AFCB
:1043800002F4FC720646ADEB020D89460146186840
:1043900097F8304002F012FE1BF80620954228BF25
:1043A00015462A464146684629F0C1F8134B0022BB
:1043B0000DF80520EA4698461CB11BF80640641B20
:1043C0006408BB1DFA1D3146D8F8000002F002FE59
:1043D000BB79FA79D8F8000013FB09F312FB04F259
:1043E0009BB292B2514602F0D9FC10B1044826F0BB
:1043F000FEFB28460C37BD46BDE8F08FD81F0020D5
:10440000833F0300C6090020094B13B51868C46830
:10441000836801A95B68984720B9236801985840D0
:10442000C0F3C0100028D4BF0020012002B010BD8E
:10443000DC1F002070B5164D1446FFF7E5FF297804
:10444000884224D0134B144A144881F0010129708A
:10445000002914BF1146194626F0C9FB2B783BB141
:10446000BDE870400E484FF400420023FFF776BFCE
:104470000B482DF0A8F9FFF74FFE40B1094B1B7810
:104480002BB9230603D5BDE87040FFF739BE70BDD8
:104490009C8E0020A53F03009D3F0300AE3F03001C
:1044A000600E00209D8E0020024840F6CD42002381
:1044B000FFF754BF300E00202DE9F74F274EDFF8ED
:1044C000A490834688463068002114461D4602F0B9
:1044D0002FFD0027584600E018460346824613F891
:1044E000012B202AF8D00A2AF6D0002299F802C01F
:1044F0001346864610F8011B0A2902D0202920D035
:1045000001BB73B1CDF80080524639460220FFF757
:104510002BFF1AF800300AEB000B13B10137032F01
:10452000D8D1306802F014FD6B1C08BFB4F1FF3F16
:1045300011D00B4822462B4603B0BDE8F04FFFF7E1
:104540000DBF724601336345D3D912B1A2EB0A0302
:10455000D7E76346D5E703B0BDE8F08FD81F00204A
:10456000000E0020C609002070B5144D00230E2651
:1045700006FB03F4625B6AB92853A01C0822284496
:1045800028F062FF2E190E4A0123B381136801330C
:10459000136070BD90420DD1A01C2C440822284409
:1045A00028F052FFA3894FF6FF729342F1D00133F6
:1045B000A381EEE70133802BDAD1EAE77087002090
:1045C000E41F002010B40A460B49040101EB00135C
:1045D0000859197A012303FA01F1C3681B681942CB
:1045E00018BF82F001021AB18368DB6810BC18475B
:1045F00083681B69FAE700BF94020020002110B510
:104600000846FFF7DFFF00210120FFF7DBFF002155
:104610000220FFF7D7FF0D4B18680E2802DD00229D
:104620001A6010BD421C1A60032390FBF3F303EBE6
:104630004303C01A0121C0B2FFF7C4FFBDE8104018
:10464000034840F6CD420023FFF788BEE01F00205C
:10465000300E0020024800220023FFF77FBE00BF7B
:10466000000E002008B50A4B0A4800221A700A4AB8
:10467000117803230131B1FBF3F303EB4303C91AB0
:10468000117026F0B4FABDE80840FFF7E3BF00BFA1
:104690009C8E00208E4003009D8E0020F8B53D4882
:1046A0003D4D24F073FE286030B93C4826F09FFA57
:1046B0006FF012042046F8BD02F0AAFC044628B1AF
:1046C000374826F094FA6FF00404F3E728680121D4
:1046D00002F02EFC3348344D24F058FE286008B90F
:1046E0003248EEE740F21112072126F09BF92868C4
:1046F00007214FF4E82226F081F92D492D4B286837
:104700004B6080238B608368DB690BB10122984783
:10471000294D00262F46686824F038FE286038B9F5
:1047200007EB06162548716826F061FA2448C8E7A9
:10473000EA68297A42F4B052013626F073F9032E62
:1047400005F11005E7D11F491F482DF034F81F4926
:104750001F482DF030F81F491F482DF02CF8FFF7A7
:1047600053FE1E4B18700028A4D01D4826F03FFAB7
:104770001C484FF4003200230021FFF79DFE1A4829
:1047800024F004FE83684FF400429B684FF47821C4
:1047900098478FE7DD7A0300D81F0020A840030068
:1047A000C2400300E5400300DC1F0020EC40030092
:1047B000CC1F00203544000094020020283F030055
:1047C00008410300FD450000300E0020590C000098
:1047D000000E002065460000600E00209C8E002028
:1047E000194103002A4103003B41030030B50A4C44
:1047F0000A44914200D130BD11F8013B58400309F1
:10480000E35C83EA0013DDB2C3F30313E05C80EAE8
:104810000510C0B2EDE700BF554103002DE9F0439C
:1048200087B0214C9DF83C909DF8408006460F468D
:1048300010461946142550EA010317D1119C142D76
:1048400018BF0135A4F1150408BF30232C4408BF5C
:104850008DF8143024EAE47414B1B9F1000F12D1C8
:10486000142D15D9D4B907B0BDE8F0830E9A0023F2
:10487000FCF764F8A25C0DF8052084460B46604600
:104880001946013DD7E739464046B047013CE3E7CA
:104890001DF805003946B0470135E1E73946404685
:1048A000B047013CDEE700BF654103000B68013300
:1048B0000B60014B1B681847C4020020014B1860B5
:1048C000704700BFC40200202DE9F04F002687B0DA
:1048D00005468B461C4602F1FF3A4FF0FF3837463B
:1048E0004FF0000907E0B9F1000F0BD1252800F0C7
:1048F0000A815946A8471AF8010F0028F3D107B0DA
:10490000BDE8F08F7A280AD8622810D8302851D014
:1049100044D8252800F0F5802D2800F0FB8059466A
:104920002520A8479AF800005946A847D8E7A0F1E3
:104930006303172BF3D801A252F823F0FB4A0000BF
:10494000FD4900001F4900001F4900001F490000E9
:10495000DF490000FD4900001F4900001F49000019
:10496000DF4900001F4900001F4900001F490000E7
:10497000774A00001F4900001F490000C34A000099
:104980001F490000FD4900001F4900001F490000A9
:10499000A54900001F490000DF490000392815D94A
:1049A0005828BCD19AF80030702B6ED154F8042BE3
:1049B000002375E0B8F1000F0BDA002F00F0AC8097
:1049C000A0F13008002F08BF022794E7B8F1000FCC
:1049D000F6DB0A2303FB0808A8F13008F2E7682891
:1049E00003D1682E06D1482685E76C2802D16C2EAB
:1049F00000F09480002E92D106467CE77A2E06D1F4
:104A0000A14659F8042BD317752823D10FE06C2E3B
:104A1000F6D04C2E05D1073424F00709F9E802231B
:104A2000F2E77528226804F1040912D10023F81E68
:104A300018BF0120012F0CBF3024202401900A2030
:104A4000CDE90248009059462846FFF7E7FE4C465C
:104A500046E7D317002A73F10001E8DA59462D2002
:104A6000CDE90423A847DDE90423524263EB430365
:104A700008F1FF38DBE759463020A847594678202F
:104A8000A8474FF0080801278CE76C2E8ED04C2EDB
:104A90008CD1E31D23F007031C465B6854F8082BF8
:104AA000F81E18BF0120012F0CBF30212021CDE9B5
:104AB000021810210190009128465946FFF7AEFEDA
:104AC0000EE754F8043B99464A4619F8010B78B9A9
:104AD000032F25D1A2EB0309A8EB0909B9F1000FB7
:104AE0007FF7FEAE59462020A84709F1FF39F5E7C8
:104AF00059460493A847049BE6E754F8040B59462B
:104B000013E7594611E74E464F464FF0FF384FF036
:104B10000109F0E60327EEE60127ECE64C26EAE67B
:104B20008146E8E607B50B4600210246019103489D
:104B300001A9FFF7C9FE03B05DF804FBAD48000012
:104B400030B585B0CDE9010104460025054803953F
:104B500001A9FFF7B9FEDDE902309842B8BF25543C
:104B600005B030BDC9AB02002DE9F84FB0F8189080
:104B700019F00808044693460DD001290CBF49F0EE
:104B8000100949F02009A0F818908BF31188BFF3A1
:104B90006F8FBDE8F88F09F00709022907D1204679
:104BA00026F03FF80028F0D00128238B4ED167690A
:104BB000218B002F15DA256821F00701C4E9008850
:104BC00041F0010121830026218B01F0070ACA452B
:104BD00002D0A368002B5AD10DB9002E71D000234A
:104BE00056E001F007035A1F012A1ED821F00701E1
:104BF000062B256889B2C4E900880AD13DB1638BD0
:104C00002A46126801339BB2002AFAD1638341F02D
:104C100002012183204626F004F806460028D3D05E
:104C2000238B43F020032383CDE7042B0CD121F009
:104C3000070189B22183204625F0F3FF05460028AD
:104C4000C1D041F0200121830025BCE7032809D110
:104C5000226923F00703166843F006032383002527
:104C60002F46B1E7042806D1226923F007035668CE
:104C700043F00403F2E7052806D1226923F0070375
:104C8000966843F00503E9E700252E46E8E701238F
:104C900041F0080121838BF31188BFF36F8FFBB9BB
:104CA00085BB16B11F492046B0474FF02003EFF3F4
:104CB000118B83F31188BFF36F8F238B23F00803CD
:104CC0002383238BDA0625D523F0100323830121C8
:104CD000B4F8189009F0070900297FF45EAF54E793
:104CE000A1680029DCD0D1F80090D1F804B03B468F
:104CF00052462046D847B9F1000FD1D04946D9F8DD
:104D00000090F2E729463B46524620462D6825F0A2
:104D1000A4FFC5E713F020011EBF23F02003238367
:104D20000221D5E787AC02002DE9F04FA1B01E4665
:104D30000023039089460293134613F8010B069350
:104D400058B1252800F081804946039B98470130DF
:104D500040F04A844FF0FF330293029821B0BDE83F
:104D6000F08F2B2D65D05CD8202D65D0232D66D0FB
:104D7000002DF2D0CDF81880DDF81880A44818F87E
:104D8000015B294628F073FB0028EAD12A2D63D164
:104D900056F8043B0793002BBFBF5B4207930123E8
:104DA0000D93069B98F8005003F102082E2D78D140
:104DB00098F800302A2B71D156F8044B08F10108FD
:104DC00018F8015B934829462F4628F050FB00282D
:104DD0006AD04346682F13F8015B069307D1682D0C
:104DE00005D108F1020398F8015006934827782D61
:104DF00008D8572D5CD8252D00F0F28300F2A28050
:104E0000002DAAD0039B4946252098470130A1D008
:104E1000039B49462846984701309BD0029B0233AA
:104E2000E4E32D2D0ED0302D089B08BF01230893FD
:104E3000A0E7012309939DE701230C939AE74FF024
:104E4000010A97E701230D9394E7002308930C933D
:104E500009930D939A468FE7A5F13003092B07902C
:104E6000A4D80A22DDF8188018F8015BA5F13003F8
:104E7000092B9BD8079B02FB0355A5F13003CDE915
:104E80000683EFE701FB0434303C9046424612F8BB
:104E9000013BA3F130000928F4D991E700240A214D
:104EA000F4E74FF0FF348DE7CDF8188007469EE712
:104EB000A5F15803202BA5D801A252F823F000BF7A
:104EC00045550000054E0000054E0000054E00004F
:104ED000054E0000054E0000054E0000054E000086
:104EE000054E0000054E0000054E00001950000060
:104EF000EF500000514F0000514F0000514F000093
:104F0000054E0000EF500000054E0000054E000069
:104F1000054E0000054E0000D1540000455500002C
:104F2000FB540000054E0000054E00001D5500001A
:104F3000054E000045550000054E0000054E0000DE
:104F400045550000A5F14503DBB2022B3FF65AAFF1
:104F5000073626F007031946F1E80223D80240EA93
:104F60005250D60220F0004004960590DDE9046717
:104F7000002A0191C3F30A5173F10003CDE91467CC
:104F800080F2E5802D238DF864300DF1650740F245
:104F9000FF73994240F0F680DDE904120A43A5F15F
:104FA000410507F1030340F0E280192D00F2D9809A
:104FB00049223A704E227A704622002419AEBA7005
:104FC000FC709B1BA246A346099A002A40F07D82F2
:104FD0000C9A002A40F079829DF86480A8F12D0295
:104FE000D2F1000848EB02080BEB0A0633441E1905
:104FF00020AB434413F81C3C303B092B00F2FE82EB
:10500000089B002B00F0FD82079B19AF9B1B14E04F
:10501000764103007C41030032464FF0000852F80D
:10502000043B01928DF864300126444619AF04EB2D
:10503000080300249B1BA246A34623EAE3739A19A4
:105040000892079A9919551A0D9A12B9002D00F372
:10505000ED8207EB0802BA4240F0EA82013B80F0A1
:10506000F582A6EB0806BBF1000F10D0387807EBED
:105070000608A0F13003092BA8EB070640F2F182E5
:10508000D846B8F1010880F0F582A6EB0B06BAF11C
:10509000000F16D007EB060817F801BB039B494623
:1050A0005846984701303FF455AEBBF12E0FA8EBA0
:1050B0000706F1D1D046B8F1000F00F3E482A6EB69
:1050C0000A0694B1387807EB0608A0F13003092BE3
:1050D000A8EB070640F2E2822E2800F0DF82A0460D
:1050E000B8F1000F00F3E382361B3E44F2E235686C
:1050F000331D002D01931CDA2D238DF86430694295
:105100000DF1650630460A2226F090F8099B064408
:1051100019A8361A002B40F06C820C9B002B40F033
:1051200068824FEAD578002C80DA0024A246A34694
:1051300066E7099B23B12B238DF864302946DFE70E
:105140000C9B0BB12023F7E7294619AEDAE7099B40
:105150000BB12B2317E70C9B0BB1202313E719AFDF
:1051600015E769223A706E227A70662225E7192DBA
:1051700099BF4E2241216E22612194BF3A703A704C
:1051800079701AE7049B05980B430E93CB170343E2
:105190000F93DDE90E23462D08BF6625134300F06B
:1051A0000781002900F09F80159B43F00043A1F286
:1051B000FE381593002618F1020FC0F2A880B8F14E
:1051C000000F00F3D48014A808F1010826F052F86B
:1051D000B8F1040FF7D1002C05F0DF03B8BF0624A7
:1051E000472B40F0EE80F11C02DBB44280F2E380FA
:1051F000023DEDB2002C00F0EA80013CBAF1000F54
:1052000040F0E580002CD4BF4FF000084FF00108BB
:10521000662D40F0DE8014EB060B4FF0660500F1C2
:10522000DB80BBF1100FA8BF4FF0100B10231393BE
:1052300000224FF00063CDE91623BBF1010B80F093
:10524000CE80149B169A17999B18159A41EB02026F
:10525000CDE9143202F07043109300231193DDE97D
:105260001023134306D014A826F016F814A826F02D
:1052700001F80136662D40F0CF80002E40F3B68055
:10528000139B002B07DD13A914A826F02EF8013E6E
:1052900007F8010BF4D1B3463B460026BAF1000FE4
:1052A00001D1002C15DD2E2203F8012B002E00F079
:1052B000AE80002C40F3AD80C6F1000AA245A8BF25
:1052C000A246A4EB0A04002C03DD139A002A00F383
:1052D0009480B8F1000F40F0B480002219AE1A702B
:1052E0009B1B71E60139049BDB180493059B5B4112
:1052F0000593DDE90423002A73F10003F2DADDE906
:105300000423CDE914234FE714A825F0B3FFDDE90A
:10531000142C0023CDF828C00B93DDE90A010029E5
:1053200008BFB0F1333F08F10108EDD20520A2FB20
:10533000002300FB0C33CDE91423013E4FF0000E97
:1053400000214FF0000C6FF0004B8C4508BF9B45CF
:1053500006D2BEF1000F3FF42EAFCDE914232AE7A9
:1053600092185B4108F1FF384FF0010EE8E714A8EE
:1053700025F092FFDDE9141008F1FF3801364FF0F7
:10538000000E00234FF0000C6FF0004B9C4508BF4F
:10539000834506D2BEF1000F3FF411AFCDE91410E2
:1053A0000DE74918404108F1FF384FF0010EE8E7DA
:1053B0000026B04607E7A41BBAF1000F04D166250A
:1053C00020E74FF0000823E74FF0000823E74FF0F5
:1053D000000804F1010B24E74FF0000B26E716A8A4
:1053E00025F05AFF16A825F045FF26E73B46302258
:1053F00003F8012B4FF0000B50E713A914A80A93F0
:1054000025F073FF0A9B013C03F8010B5BE7B246F2
:1054100059E74FF0000A5CE713A914A825F065FFCF
:105420003028387018BF06F1FF36BAF1000F37D1B7
:10543000002C35DC7B1CB8F1000F43D04FF0000B83
:10544000DA46194613F8012D302AFAD02E2A18BF51
:105450000B46002405F0DF02452A7FF43EAF002E04
:105460001946BABF76422D222B22632E01F8025B29
:105470005A7008DD642096FBF0F202F13005D91C69
:105480009D7000FB12660A200B4696FBF0F200FBB3
:10549000126602F13005303603F8025B4E701CE7ED
:1054A0002E22BB1C7A70002CC5DD139A002AC2DDA7
:1054B00013A914A80A9325F018FF0A9B013C03F8CE
:1054C000010BF0E7C346C246C4E74FF001088BE585
:1054D0003246682F52F8043B019206D06C2F09D057
:1054E000482F07D1029A1A7001E0029A1A80019E91
:1054F000069A21E4029A1A60F9E747F63003ADF8FC
:1055000064303346102253F8041B01930DF16600FA
:1055100025F08CFE4FF00208861C04E63346002C72
:1055200053F8047B0193B8BF6FF000440026B442E7
:1055300003D126460024A04679E5BB5D002B5BD055
:105540000136F4E7331D6F2D3168019319D1BAF19B
:10555000000F08D030238DF8643079B98DF86510CC
:1055600088460126DFE519AD2846082225F05EFEB3
:1055700019AEAD1B2E184FF00008D4E50DF16505EE
:10558000F2E7752D05D10A2219A825F04FFE06462F
:10559000F1E7BAF1000F11D047F63003ADF86430EF
:1055A0000DF166071022384625F040FE582D07D031
:1055B00019AEBF1B3E184FEA4A08B4E519AFF1E730
:1055C00019AA12F8013BA3F16101192903D8203B64
:1055D00002F8013CF5E712F8013C002BF1D1E7E7B6
:1055E00049462846FFF7B1BB029B0133CDE9016371
:1055F0007DE74FF0010896E51C469CE719AF0023B4
:105600001DE5089B19AF1AE509934946039B0792CC
:10561000202098470130079A099B3FF49BAB013A41
:10562000F2D2029929440291154612E52A46F6E77C
:10563000099317F8010B039B0792494698470130DD
:10564000079A099B7FF407ADFFF784BB0793494690
:10565000039B302098470130079B7FF4FFACFFF796
:1056600079BB039B4946984701303FF473AB17F869
:10567000010FFEE4039B49463020984701307FF438
:1056800000ADFFF767BB039B4946302098470130C8
:1056900008F1FF387FF40FADFFF75CBB039B494671
:1056A000984701303FF456AB17F8010F0DE5039B07
:1056B000494630209847013008F1FF387FF410AD9B
:1056C000FFF748BB17F8010B039B49469847013089
:1056D0003FF440ABF31B002BF4DC029B089A002D37
:1056E000134402937FF703AF2C4606E0039B494621
:1056F0002020984701303FF42DAB013CF6D2029BAD
:105700002B440293F3E600BF30B51049104889B02E
:1057100000222CF0ECF80F4D0F4900220023CDE9B8
:10572000062300240E23CDE90334CDE901440B4BBD
:1057300000944FF44072284624F072FD0849284630
:105740002BF0D1FF204609B030BD00BF65570000E7
:10575000900E0020C80E0020609300207D5B0000AA
:1057600080410300014824F0C3BC00BF000C0020AE
:1057700008B500F065FA094825F0CFFD042328227A
:10578000074908482BF0B2FD074B084A1A604FF44E
:105790000040BDE8084000F09BBC00BFF41F0020A3
:1057A00030CF0020FC1F0020C802002059B30200A7
:1057B000F8B50F4BBFF35B8F002553E8007F43E83C
:1057C0000052002AF9D1BFF35B8F0A4C0A4E361BF8
:1057D0003611B54200DBF8BD63685B792BB12368F5
:1057E000DB6813B139462046984701351034F0E79D
:1057F000EC1F0020E0200300F0200300064BBFF365
:105800005B8F53E8002F013243E800210029F8D1D3
:10581000BFF35B8F704700BFEC1F0020044A054BAD
:105820009B1AB1EBD30F34BF52F831000020704700
:10583000D81E0300E0200300094B4268C31A1B1165
:10584000013310B513714368064C196001225A7177
:10585000227812B9044824F04BFC0123237010BDB8
:10586000E02003009E8F0020000C002070B5114B3B
:10587000BFF35B8F53E8005F6A1C43E800210029F7
:10588000F8D1BFF35B8F2DB90B4C0C4E361B361184
:10589000B54200DB70BD237B43B123685B6903B174
:1058A0009847042200212046FFF7C6FF0135103437
:1058B000EEE700BFF01F0020E0200300F02003000F
:1058C000164B984237B5044602D3154B984220D365
:1058D00014480022002301A923F038FF0546D8B957
:1058E0000122019BBFF35B8F53E8001F43E80020B8
:1058F0000028F9D1BFF35B8F019821461F220430A5
:1059000027F0A2FD019C7E2384F8233084F82450E4
:105910000434204603B030BD034CFAE7C41B030037
:1059200050C00300FC1F00208841030048B1054B14
:10593000984205D3A03398422CBF00200120704725
:105940000020704730CF00202DE9F04F4C4B1B78E2
:1059500085B0044603B960B34FF02003EFF311861E
:1059600083F31188BFF36F8F464825F0E6FC0546A8
:1059700086F31188BFF36F8F78B1BFF35B8F424B13
:1059800053E8002F013A43E800210029F8D1BFF382
:105990005B8F94B1284625F0E9FD24B93B4B1B6889
:1059A0000BB1FFF705FF374825F0C5FC041E18BFF3
:1059B0000124204605B0BDE8F08F354B1B78CBB9EC
:1059C0002B7ADB0716D425F0E4FD8046284625F027
:1059D000ABFD0146404625F0C3FC2E4F2E4BDFF8B1
:1059E000D4B0DB1BDB0803932C4BDB1B06464FEAD2
:1059F000D30A36B92A4E2B4FBF1B3F114FF0000878
:105A00003AE0B6FA86F1C1F11F094946284625F069
:105A10008EFD254B9842014602D3244B98421AD35F
:105A20000846FFF783FF0246A8B9214B994212D0DE
:105A30006B890399C3F389138B4238BF57F833201E
:105A40004FEA8A1343F00103ADF80030494643465C
:105A5000584625F0DFFC012101FA09F126EA01068A
:105A6000C7E773685B7923B1336829461B68304602
:105A7000984708F101081036B845F2DB8AE700BF05
:105A80009E8F0020F41F0020E81F0020EC1F002044
:105A90009F8F0020D81E0300E02003008820030011
:105AA000E0200300F0200300C41B030050C00300EB
:105AB00088410300A2410300294B73B51B68418153
:105AC00004469847274DE060BFF35B8F55E8003FE1
:105AD000013345E80032002AF8D1BFF35B8F4FF065
